:020000040000FA
:0608000093EF36F0120038
:020806001200DE
:06080800C3EF1FF0120017
:02080E00C250D6
:08081000020B01E0010E1200D1
:0608180097EF32F0120020
:02081E000800D0
:10082000186E0000DA0200000E000000166E0000D4
:100830001003000002000000106E00000003000022
:1008400006000000ED6D0000A10200002300000082
:10085000E96D00000A03000004000000B66D00000E
:10086000CB01000033000000B46D00000E03000057
:1008700002000000A96D000012030000010000004A
:10088000D9CFE6FFE1CFD9FF020EE126780EF36E55
:10089000FE0EDBCFF4FFF350F45C0DE3FE0EDB50F5
:1008A000860809E3FB0EDBCFE9FFFC0EDBCFEAFF96
:1008B0007F0EEF6E87D07F0EF36EFE0EDBCFF4FF60
:1008C000F350F45C41E2FE0EDB50FF0DF3507F0F5E
:1008D000DE6EDD6AF80EDBCF2DF02E6A2DBE2E689F
:1008E0002DC01DF02EC01EF0DECF22F0DDCF23F094
:1008F00049EC2EF01BC02BF01CC02CF02B6C2C1ED6
:10090000000E2C222BC0DEFF2CC0DDFFD9CFE9FF6B
:10091000DACFEAFF640E226E236AEECF1DF0EDCF30
:100920001EF023EC2EF01DC0EEFF1EC0EDFF7F0E6B
:10093000DE26000EDD22FB0EDBCFE9FFFC0EDBCF57
:10094000EAFFDFCFEFFF3ED0FE0EDB507F083AE23A
:10095000FE0EDB50810FDE6EDD6AF80EDBCF2BF072
:100960002C6A2BBE2C68D9CFE9FFDACFEAFF2BC067
:1009700022F02CC023F0EECF1DF0EDCF1EF076EC70
:100980002EF01BC0EEFF1CC0EDFFD9CFE9FFDACF80
:10099000EAFF640E226E236AEECF1DF0EDCF1EF04B
:1009A00023EC2EF01DC0EEFF1EC0EDFF7F0EDE26F5
:1009B000000EDD22FB0EDBCFE9FFFC0EDBCFEAFFF2
:1009C000DFCFEFFF780EF36EFD0EDBCFF4FFF350B9
:1009D000F45C0DE3FD0EDB50860809E3F90EDBCF76
:1009E000E9FFFA0EDBCFEAFF7F0EEF6E87D07F0EB6
:1009F000F36EFD0EDBCFF4FFF350F45C41E2FD0E2D
:100A0000DB50FF0DF3507F0FDE6EDD6AF80EDBCF9B
:100A10002DF02E6A2DBE2E682DC01DF02EC01EF0AA
:100A2000DECF22F0DDCF23F049EC2EF01BC02BF0FF
:100A30001CC02CF02B6C2C1E000E2C222BC0DEFFB9
:100A40002CC0DDFFD9CFE9FFDACFEAFF640E226EBA
:100A5000236AEECF1DF0EDCF1EF023EC2EF01DC06B
:100A6000EEFF1EC0EDFF7F0EDE26000EDD22F90E2A
:100A7000DBCFE9FFFA0EDBCFEAFFDFCFEFFF3ED09F
:100A8000FD0EDB507F083AE2FD0EDB50810FDE6E7B
:100A9000DD6AF80EDBCF2BF02C6A2BBE2C68D9CF89
:100AA000E9FFDACFEAFF2BC022F02CC023F0EECF13
:100AB0001DF0EDCF1EF076EC2EF01BC0EEFF1CC03B
:100AC000EDFFD9CFE9FFDACFEAFF640E226E236A89
:100AD000EECF1DF0EDCF1EF023EC2EF01DC0EEFF8B
:100AE0001EC0EDFF7F0EDE26000EDD22F90EDBCFED
:100AF000E9FFFA0EDBCFEAFFDFCFEFFFD9CFE1FF4F
:100B0000E552E7CFD9FF1200D9CFE6FFE1CFD9FFF9
:100B1000020EE126750EF36EFE0EDBCFF4FFF350EE
:100B2000F45C54E2FE0EDB50FF0DF3507F0FDE6EDF
:100B3000DD6AF80EDB502D6E2E6A2DC01DF02EC022
:100B40001EF0DECF22F0DDCF23F049EC2EF01BC0EB
:100B50002BF01CC02CF02B6C2C1E000E2C222BC05A
:100B6000DEFF2CC0DDFFD9CFE9FFDACFEAFF640E4C
:100B7000226E236AEECF1DF0EDCF1EF023EC2EF097
:100B80001DC0EEFF1EC0EDFF7F0EDE26000EDD2233
:100B9000DECF2BF0DDCF2CF07F0ED8802B56000E51
:100BA0002C567F0E2B26000E2C22F90EDBCFE9FFF0
:100BB000FA0EDBCFEAFF2BC0EFFFFB0EDBCFE9FF26
:100BC000FC0EDBCFEAFFDFCFEFFFF3D0FE0EDB50F2
:100BD00089084EE2FE0EDB50810FDE6EDD6AF80EF4
:100BE000DB502B6E2C6AD9CFE9FFDACFEAFF2BC09E
:100BF00022F02CC023F0EECF1DF0EDCF1EF076ECEE
:100C00002EF01BC0EEFF1CC0EDFFD9CFE9FFDACFFD
:100C1000EAFF640E226E236AEECF1DF0EDCF1EF0C8
:100C200023EC2EF01DC0EEFF1EC0EDFF7F0EDE2672
:100C3000000EDD22DECF2BF0DDCF2CF07F0E2B5E01
:100C4000000E2C5A7F0ED8802B56000E2C56F90E13
:100C5000DBCFE9FFFA0EDBCFEAFF2BC0EFFFFB0E85
:100C6000DBCFE9FFFC0EDBCFEAFFDFCFEFFFA1D048
:100C7000750EF36EFD0EDBCFF4FFF350F45C05E36D
:100C8000FD0EDB50890801E394D0750EF36EFD0E66
:100C9000DBCFF4FFF350F45C37E2FD0EDB50FF0DC9
:100CA000F3507F0FDE6EDD6AF80EDB502D6E2E6A7C
:100CB0002DC01DF02EC01EF0DECF22F0DDCF23F0C0
:100CC00049EC2EF01BC02BF01CC02CF02B6C2C1E02
:100CD000000E2C222BC0DEFF2CC0DDFFD9CFE9FF98
:100CE000DACFEAFF640E226E236AEECF1DF0EDCF5D
:100CF0001EF023EC2EF01DC0EEFF1EC0EDFF7F0E98
:100D0000DE26000EDD2245D0FD0EDB50890831E2E3
:100D1000FD0EDB50810FDE6EDD6AF80EDB502B6EB0
:100D20002C6AD9CFE9FFDACFEAFF2BC022F02CC022
:100D300023F0EECF1DF0EDCF1EF076EC2EF01BC0B1
:100D4000EEFF1CC0EDFFD9CFE9FFDACFEAFF640E5A
:100D5000226E236AEECF1DF0EDCF1EF023EC2EF0B5
:100D60001DC0EEFF1EC0EDFF7F0EDE26000EDD2251
:100D700010D0FB0EDBCFE9FFFC0EDBCFEAFF7F0ECE
:100D8000EF6EF90EDBCFE9FFFA0EDBCFEAFF7F0E45
:100D9000EF6EFB0EDBCFE9FFFC0EDBCFEAFFDFCF10
:100DA000EFFFF90EDBCFE9FFFA0EDBCFEAFFDFCF73
:100DB000EFFFD9CFE1FFE552E7CFD9FF1200D9CF3E
:100DC000E6FFE1CFD9FF0B0EE1267F0E02018A5D1F
:100DD000FF0DF3507F0FE66ED950090FE96EDACFA1
:100DE000EAFFE552E750EE6EED6A780E8A5D0BE39E
:100DF0008A51860808E37F0EF36E070EF3CFDBFF00
:100E0000080EDB6AAFD0090EDBCF2BF00A0EDBCF6A
:100E10002CF0D8902C5004E67F0E2B5C000E2C5842
:100E200052E21D681E68090EDBCF22F00A0EDBCFEE
:100E300023F049EC2EF01BC02BF01CC02CF07F0ED1
:100E40002B26000E2C22070E2BC0DBFF080E2CC019
:100E5000DBFFFA0EDB502D6E2E6A070EDBCF1DF086
:100E6000080EDBCF1EF02DC022F02EC023F049EC7F
:100E70002EF01BC02BF01CC02CF02B6C2C1E000E77
:100E80002C22070E2BC0DBFF080E2CC0DBFFD95035
:100E9000070FE96EDACFEAFF640E226E236AEECF07
:100EA0001DF0EDCF1EF023EC2EF01DC0EEFF1EC096
:100EB000EDFFD950070FE96EDACFEAFF7F0EEE267D
:100EC000000EED224FD0090EDBCF2BF00A0EDBCF48
:100ED0002CF02C3404E22B507F08000E2C5442E2FC
:100EE000090EDBCF2BF00A0EDBCF2CF07F0E2B5E32
:100EF000000E2C5A070E2BC0DBFF080E2CC0DBFFA8
:100F0000FA0EDB502B6E2C6AD950070FE96EDACF40
:100F1000EAFF2BC022F02CC023F0EECF1DF0EDCF66
:100F20001EF076EC2EF01BC0EEFF1CC0EDFFD9507A
:100F3000070FE96EDACFEAFF640E226E236AEECF66
:100F40001DF0EDCF1EF023EC2EF01DC0EEFF1EC0F5
:100F5000EDFFD950070FE96EDACFEAFF7F0EEE26DC
:100F6000000EED22070EDBCF2BF0080EDBCF2CF0AE
:100F70007F0E2B5E000E2C5A2B50DF6E780E020176
:100F8000865D0BE38651860808E37F0EF36E070E3D
:100F9000F3CFDBFF080EDB6A8CD07F0E865D48E264
:100FA000FF0E8603F3507F0FE66ED950070FE96EF0
:100FB000DACFEAFFE552E750EE6EED6AFA0EDB504B
:100FC0002D6E2E6A070EDBCF1DF0080EDBCF1EF054
:100FD0002DC022F02EC023F049EC2EF01BC02BF0C8
:100FE0001CC02CF02B6C2C1E000E2C22070E2BC0CC
:100FF000DBFF080E2CC0DBFFD950070FE96EDACFFC
:10100000EAFF640E226E236AEECF1DF0EDCF1EF0D4
:1010100023EC2EF01DC0EEFF1EC0EDFFD950070FD0
:10102000E96EDACFEAFF7F0EEE26000EED2241D008
:1010300086517F083EE27F0E865DE66ED950070F2F
:10104000E96EDACFEAFFE552E750EE6EED6AFA0E8E
:10105000DB502B6E2C6AD950070FE96EDACFEAFF0E
:101060002BC022F02CC023F0EECF1DF0EDCF1EF0F0
:1010700076EC2EF01BC0EEFF1CC0EDFFD950070F21
:10108000E96EDACFEAFF640E226E236AEECF1DF01E
:10109000EDCF1EF023EC2EF01DC0EEFF1EC0EDFFC5
:1010A000D950070FE96EDACFEAFF7F0EEE26000E69
:1010B000ED22070EDBCF2BF0080EDBCF2CF07F0EDE
:1010C0002B5E000E2C5A010E2BC0DBFFDFCF2BF066
:1010D0002C6A2BBE2C682BC0E6FF2CC0E6FF84DAFE
:1010E000E552E552020EF3CFDBFF010EDBCF2BF012
:1010F0002C6A2BBE2C682BC0E6FF2CC0E6FF74DAEE
:10110000E552E552030EF3CFDBFF010EDBCF2BF0F0
:10111000000EE76E2B18E8AE02D02B3403D0E75058
:10112000D8802B5435E2DFCF2BF0000EE76E2B1862
:10113000E8AE02D02B3403D0E750D8802B5414E211
:10114000020EDBCF2BF0030EDB50D8802B5406E2CF
:10115000010EF36E060EF3CFDBFF05D0020EF36E29
:10116000060EF3CFDBFF13D0030EDBCF2BF0020E06
:10117000DB50D8802B5406E2030EF36E060EF3CF3D
:10118000DBFF05D0040EF36E060EF3CFDBFF2AD093
:10119000DFCF2BF02B3413E3020EDBCF2BF0030E4B
:1011A000DB50D8802B5406E2050EF36E060EF3CF0B
:1011B000DBFF04D0060EF36EF3CFDBFF13D0030E7C
:1011C000DBCF2BF0020EDB50D8802B5406E2070E4B
:1011D000F36E060EF3CFDBFF05D0080EF36E060E9E
:1011E000F3CFDBFFDB50080A01E192D00F0A01E1E7
:1011F0007DD0010A69E0030A55E0010A41E0070ACF
:101200002DE0010A19E0030A05E0040EDB6A050E71
:10121000DB6A90D0020EDB50E76E040EE7CFDBFFF7
:10122000020EDBCFE6FF030EDB50E552E75CFF0D5D
:10123000050EF3CFDBFF7ED0030EDB50E76E040E0E
:10124000E7CFDBFF030EDBCFE6FF020EDB50E552FC
:10125000E75CE76E050EE7CFDBFF6CD0030EDBCF5C
:10126000E6FF020EDB50E552E75CE76E040EE7CFC7
:10127000DBFF030EDB50E76E050EE7CFDBFF5AD036
:10128000020EDBCFE6FF030EDB50E552E75CFF0DFD
:10129000040EF3CFDBFF020EDB50E76E050EE7CF47
:1012A000DBFF48D0020EDB50FF0D040EF3CFDBFF57
:1012B000020EDBCFE6FF030EDB50E552E75CE76E84
:1012C000050EE7CFDBFF36D0030EDB50FF0D040E1B
:1012D000F3CFDBFF030EDBCFE6FF020EDB50E55260
:1012E000E75CFF0D050EF3CFDBFF24D0030EDBCF51
:1012F000E6FF020EDB50E552E75CFF0D040EF3CF74
:10130000DBFF030EDB50FF0D050EF3CFDBFF12D02A
:10131000020EDBCFE6FF030EDB50E552E75CE76E23
:10132000040EE7CFDBFF020EDB50FF0D050EF3CFFF
:10133000DBFF00D0040EDB507F0FE66EFD0EDBCF2F
:10134000E9FFFE0EDBCFEAFFE552E750EF6E050E38
:10135000DB507F0FE66EFB0EDBCFE9FFFC0EDBCF31
:10136000EAFFE552E750EF6E00D0D9CFE1FFE5523A
:10137000E7CFD9FF1200CD8ACD98CD92CD96CD94EE
:10138000CD8E9E909D80CD801200B18EB19CB19685
:10139000B18AB188B194B192B180A192A0821200B9
:1013A000D9CFE6FFE1CFD9FFFE0EDB50030A21E0E3
:1013B000020A01E037D0FD0EDB500AE10201DA2B10
:1013C0000A0EDA5D04E1DB2B000EDC23DA6B10D0B1
:1013D000FD0EDB5006E0DBC2F3FFDCC2F4FF22D0DF
:1013E00007D0FD0EDB50020803E10201DB6BDC6B72
:1013F00019D0FD0EDB5005E10201DD2B000EDE23CE
:1014000010D0FD0EDB5006E0DDC2F3FFDEC2F4FFBC
:1014100009D007D0FD0EDB50020803E10201DD6BAD
:10142000DE6B00D0E552E7CFD9FF1200D9CFE6FF3F
:10143000E1CFD9FFFD0EDB5012E0FE0EDB50010ABA
:1014400008E0010A01E00AD00201DF2B000EE023D0
:1014500005D00201E12B000EE22300D013D0FE0ED6
:10146000DB50010A09E0010A01E00CD0DFC2F3FF02
:10147000E0C2F4FF07D006D0E1C2F3FFE2C2F4FFFE
:1014800001D000D0E552E7CFD9FF1200D9CFE6FF57
:10149000E1CFD9FFFE0EDB5002E18D8401D08D94A7
:1014A000E552E7CFD9FF1200D9CFE6FFE1CFD9FF50
:1014B000020EE126F30EDBCF1DF0F40EDBCF1EF0A3
:1014C000D60E1D1802E1E8681E185BE02A0E1D18F2
:1014D00001E11E5004E02A0EF36EF46A7FD0FD0E87
:1014E000DBCF2DF0FE0EDBCF2EF0F90EDB502D5CA6
:1014F0002B6EFA0EDB502E582C6E2B502C100DE15B
:10150000F50EDBCFE9FFF60EDBCFEAFF2A0EEE6E1B
:10151000ED6AF36EF46A62D061D0FD0EDBCF33F07A
:10152000FE0EDBCF34F0F90EDB50335C316EFA0E79
:10153000DB503458326EFB0EDBCF2FF0FC0EDBCFCE
:1015400030F0F70EDB502F5C2D6EF80EDB5030586C
:101550002E6E2DC01DF02EC01EF031C022F032C004
:1015600023F023EC2EF01DC02BF01EC02CF0F50E46
:10157000DBCFE9FFF60EDBCFEAFF2BC0EEFF2CC07E
:10158000EDFFFB0EDBCF2DF0FC0EDBCF2EF0F50ECA
:10159000DBCFE9FFF60EDBCFEAFFEECF1DF0EDCF9C
:1015A0001EF0FD0EDBCF22F0FE0EDBCF23F049EC68
:1015B0002EF01B502D5C2B6E1C502E582C6E2BC009
:1015C000DEFF2CC0DDFFDECF2BF0DDCF2CF02BC0FB
:1015D000F3FF2CC0F4FF02D001D000D0D9CFE1FF3F
:1015E000E552E7CFD9FF1200D9CFE6FFE1CFD9FF0F
:1015F000FD0EDBCF2BF0FE0EDBCF2CF00001800EBA
:101600002C1410E01D681E68FD0EDBCF22F0FE0ECC
:10161000DBCF23F049EC2EF0FD0E1BC0DBFFFE0EEE
:101620001CC0DBFFFD0EDBCF2BF0FE0EDBCF2CF062
:101630002BC0F3FF2CC0F4FF00D0E552E7CFD9FF59
:101640001200D9CFE6FFE1CFD9FF0E0EE126FE0E44
:10165000DB50DE6EDD6AFD0EDB50E66ED950020F08
:10166000E96EDACFEAFFE552E750EE6EED6AFC0E66
:10167000DB50E66ED950040FE96EDACFEAFFE5528F
:10168000E750EE6EED6ADECF2BF0DDCF2CF02C3480
:1016900004E22B507F08000E2C5409E3D9CFE9FF58
:1016A000DACFEAFF7F0EEE5E000EED5A14D0DECFE9
:1016B0002BF0DDCF2CF0D8902C5004E6800E2B5C64
:1016C000000E2C5808E3D9CFE9FFDACFEAFF800EED
:1016D000EE5E000EED5A020EDBCF2BF0030EDBCFD9
:1016E0002CF02C3404E22B507F08000E2C540AE31B
:1016F000D950020FE96EDACFEAFF7F0EEE5E000EE0
:10170000ED5A17D0020EDBCF2BF0030EDBCF2CF0FF
:10171000D8902C5004E6800E2B5C000E2C5809E368
:10172000D950020FE96EDACFEAFF800EEE5E000EAE
:10173000ED5A040EDBCF2BF0050EDBCF2CF02C3452
:1017400004E22B507F08000E2C540AE3D950040FFA
:10175000E96EDACFEAFF7F0EEE5E000EED5A17D08B
:10176000040EDBCF2BF0050EDBCF2CF0D8902C50E5
:1017700004E6800E2B5C000E2C5809E3D950040FB0
:10178000E96EDACFEAFF800EEE5E000EED5A08D069
:10179000D9CFE9FFDACFEAFFEE6CEF1E000EED22A3
:1017A00009D0D950020FE96EDACFEAFFEE6CEF1ED6
:1017B000000EED2209D0D950040FE96EDACFEAFF0E
:1017C000EE6CEF1E000EED22DECF2BF0DDCF2CF005
:1017D000D8902C5004E6080E2B5C000E2C580DE21D
:1017E000DECF2DF0DDCF2EF02E3404E32D50F8089F
:1017F000FF0E2E5402E2DE6ADD6A020EDBCF2BF012
:10180000030EDBCF2CF0D8902C5004E6080E2B5C96
:10181000000E2C5811E2020EDBCF2DF0030EDBCFB1
:101820002EF02E3404E32D50F808FF0E2E5404E25F
:10183000020EDB6A030EDB6A040EDBCF2BF0050E13
:10184000DBCF2CF0D8902C5004E6080E2B5C000E59
:101850002C5811E2040EDBCF2DF0050EDBCF2EF05D
:101860002E3404E32D50F808FF0E2E5404E2040E2B
:10187000DB6A050EDB6A020EDBCF2FF0030EDBCF37
:1018800030F0DE502F242D6EDD5030202E6E040EF1
:10189000DB502D242B6E050EDB502E202C6E060EF9
:1018A0002BC0DBFF070E2CC0DBFFDECF2FF0DDCF20
:1018B00030F0000E2F6C301E3022020EDB502F2431
:1018C0002D6E030EDB5030202E6E040EDB502D5C8F
:1018D0002B6E050EDB502E582C6E080E2BC0DBFF36
:1018E000090E2CC0DBFFDECF2FF0DDCF30F0000E75
:1018F0002F6C301E3022020EDB502F242D6E030E73
:10190000DB5030202E6E040EDB502D242B6E050E86
:10191000DB502E202C6E0A0E2BC0DBFF0B0E2CC0D2
:10192000DBFF020EDBCF2FF0030EDBCF30F0DE50FB
:101930002F242D6EDD5030202E6E040EDB502D5CDA
:101940002B6E050EDB502E582C6E0C0E2BC0DBFFC1
:101950000D0E2CC0DBFFD950080FE96EDACFEAFF7D
:10196000EE6CEF1E000EED22D9500C0FE96EDACFAF
:10197000EAFFEE6CEF1E000EED2202018251010B18
:101980004BE18151400B48E1D950060FE96EDACFA7
:10199000EAFF020E226E236AEECF1DF0EDCF1EF09D
:1019A00023EC2EF01DC0EEFF1EC0EDFFD950080F36
:1019B000E96EDACFEAFF020E226E236AEECF1DF047
:1019C000EDCF1EF023EC2EF01DC0EEFF1EC0EDFF8C
:1019D000D9500A0FE96EDACFEAFF020E226E236AAF
:1019E000EECF1DF0EDCF1EF023EC2EF01DC0EEFF6C
:1019F0001EC0EDFFD9500C0FE96EDACFEAFF020EE0
:101A0000226E236AEECF1DF0EDCF1EF023EC2EF0F8
:101A10001DC0EEFF1EC0EDFF060EDBCF2BF0070E44
:101A2000DBCF2CF0D8802C5004E7810E2B5CFF0E0E
:101A30002C5808E2810EF36E060EF3CFDBFF070E83
:101A4000DB6814D0060EDBCF2BF0070EDBCF2CF0BB
:101A50002C3404E22B507F08000E2C5407E27F0E3A
:101A6000F36E060EF3CFDBFF070EDB6A080EDBCF4B
:101A70002BF0090EDBCF2CF0D8802C5004E7810E20
:101A80002B5CFF0E2C5808E2810EF36E080EF3CF8C
:101A9000DBFF090EDB6814D0080EDBCF2BF0090E3C
:101AA000DBCF2CF02C3404E22B507F08000E2C549A
:101AB00007E27F0EF36E080EF3CFDBFF090EDB6A41
:101AC0000A0EDBCF2BF00B0EDBCF2CF0D8802C5086
:101AD00004E7810E2B5CFF0E2C5808E2810EF36E9A
:101AE0000A0EF3CFDBFF0B0EDB6814D00A0EDBCF40
:101AF0002BF00B0EDBCF2CF02C3404E22B507F08A4
:101B0000000E2C5407E27F0EF36E0A0EF3CFDBFFBC
:101B10000B0EDB6A0C0EDBCF2BF00D0EDBCF2CF0A7
:101B2000D8802C5004E7810E2B5CFF0E2C5808E265
:101B3000810EF36E0C0EF3CFDBFF0D0EDB6814D0BD
:101B40000C0EDBCF2BF00D0EDBCF2CF02C3404E28F
:101B50002B507F08000E2C5407E27F0EF36E0C0E04
:101B6000F3CFDBFF0D0EDB6A060EDBCF2BF0070E8B
:101B7000DBCF2CF02C3404E22B500008000E2C5448
:101B80000AE3D950060FE96EDACFEAFF7F0EEE26A0
:101B9000000EED2209D0D950060FE96EDACFEAFF28
:101BA000800EEE26000EED22080EDBCF2BF0090E84
:101BB000DBCF2CF02C3404E22B500008000E2C5408
:101BC0000AE3D950080FE96EDACFEAFF7F0EEE265E
:101BD000000EED2209D0D950080FE96EDACFEAFFE6
:101BE000800EEE26000EED220A0EDBCF2BF00B0E40
:101BF000DBCF2CF02C3404E22B500008000E2C54C8
:101C00000AE3D9500A0FE96EDACFEAFF7F0EEE261B
:101C1000000EED2209D0D9500A0FE96EDACFEAFFA3
:101C2000800EEE26000EED220C0EDBCF2BF00D0EFB
:101C3000DBCF2CF02C3404E22B500008000E2C5487
:101C40000AE3D9500C0FE96EDACFEAFF7F0EEE26D9
:101C5000000EED2209D0D9500C0FE96EDACFEAFF61
:101C6000800EEE26000EED22020EE66E870EE66E68
:101C7000E66A3FEC2BF0E552E552E66E030EE66EA7
:101C8000FF0EE76E060EDBCF2BF0070EDBCF2CF03E
:101C9000E7502B162C6A2B50E66E88EC29F0E552A3
:101CA000E552E66E09EC2AF0E552E552E5520201F2
:101CB000646F020EE66E8F0EE66EE66A3FEC2BF066
:101CC000E552E552E66E030EE66EFF0EE76E080E75
:101CD000DBCF2BF0090EDBCF2CF0E7502B162C6A54
:101CE0002B50E66E88EC29F0E552E552E66E09ECE1
:101CF0002AF0E552E552E5520201656F020EE66EEA
:101D0000970EE66EE66A3FEC2BF0E552E552E66E82
:101D1000030EE66EFF0EE76E0A0EDBCF2BF00B0E06
:101D2000DBCF2CF0E7502B162C6A2B50E66E88EC9C
:101D300029F0E552E552E66E09EC2AF0E552E5524B
:101D4000E5520201666F020EE66E9F0EE66EE66ACF
:101D50003FEC2BF0E552E552E66E030EE66EFF0E09
:101D6000E76E0C0EDBCF2BF00D0EDBCF2CF0E75027
:101D70002B162C6A2B50E66E88EC29F0E552E552C2
:101D8000E66E09EC2AF0E552E552E5520201676F72
:101D900000D0D9CFE1FFE552E7CFD9FF1200D9CF6C
:101DA000E6FFE1CFD9FFA69EFD0EDBCF2BF0FE0EA6
:101DB000DBCF2CF02CC02BF02C6A2B50AA6EFD0E22
:101DC000DB50A96EA680A85000D0E552E7CFD9FF1E
:101DD0001200D9CFE6FFE1CFD9FFE6520201E4516C
:101DE00026E1E751EA6A000FE96E020EEA22FC0ED4
:101DF000DBCFEFFFE751E96EEA6AD890E936EA36C1
:101E0000200EE926020EEA22FD0EDBCFEEFFFE0ECB
:101E1000DBCFEDFFE32BE72B1F0EE717E751E65D66
:101E200002E1010EE46FE56B010EDF6E01D0DF6AA7
:101E3000DF5000D0E552E552E7CFD9FF1200D9CFED
:101E4000E6FFE1CFD9FF020EE1260201E55169E18B
:101E5000F250800B01E0010EDF6EF250400B01E00A
:101E6000010EE76E010EE7CFDBFFA69EA698A198B4
:101E7000E651E96EEA6AD890E936EA36200EE9269C
:101E8000020EEA22EF50A96EE651E96EEA6AD89096
:101E9000E936EA36200EE926020EEA22EECF2BF0D2
:101EA000EFCF2CF02CC02BF02C6A2B50AA6EE651F1
:101EB000EA6A000FE96E020EEA22EF50A86EA684CD
:101EC000F29EF29C550EA76EAA0EA76EA682DF5058
:101ED000010BF36EF346F346F346F346F346F3463F
:101EE000F3467F0EF214F310F26E010EDB50010B7D
:101EF000F36EF346F346F346F346F346F346BF0E5E
:101F0000F214F310F26EE307E62B1F0EE617E7510B
:101F1000E65D02E1010EE56FE46BA1A8FED7A19892
:0E1F2000A694D9CFE1FFE552E7CFD9FF12001A
:021F2E00D9CF09
:101F3000E6FFE1CFD9FFFD0EDBCFE6FFFE0EDBCFE4
:101F4000E6FFF3EC13F0E552E552FB0EDBCFE6FFC4
:101F5000FC0EDBCFE6FFE4DBE552E552F90EDBCF0A
:101F6000E6FFFA0EDBCFE6FFB7EC13F0E552E552E1
:101F7000D3C1F3FFD4C1F4FF00D0E552E7CFD9FFBE
:101F80001200D9CFE6FFE1CFD9FF060EE126A70E5A
:101F9000E66EF5EC2FF0E552F3CFDEFFF4CFDDFF78
:101FA000DECFE6FFDDCFE6FF250EE66E650EE66EC0
:101FB000000EE66E55EC34F0F56E050EE15EF55060
:101FC000DECF2BF0DDCF2CF00201CE512B5CCF51B8
:101FD0002C580CE2C469C569C4C2E6FFC5C2E6FF5D
:101FE000C6DBE552E5520201D66BD76BDECF2BF094
:101FF000DDCF2CF0CE512B5CCF512C5810E3D651B5
:10200000D7110DE1C46BC56BC4C2E6FFC5C2E6FFC4
:10201000AEDBE552E552010E0201D66FD76BDECF83
:102020002BF0DDCF2CF00101FB512B1802E1FC510C
:102030002C1804E0DECFFBF1DDCFFCF1020186516C
:10204000E66ED950040FE96EDACFEAFFE552E750A9
:10205000EE6EED6A040EDBCFE6FF050EDBCFE6FF8A
:10206000DECFE6FFDDCFE6FF58D9E552E552E55277
:10207000E552020EF3CFDBFF030EF4CFDBFF020EBF
:10208000DBCF6EF2DBCF6FF2020182B106D002012C
:10209000C66BC76B0101CF6BD06B020182A11FD051
:1020A0000101CF51D0111BE1CD51CE110AE1010E3A
:1020B0000201C66FC76B0101CD6FCE6BCF6FD06BC6
:1020C0000ED0010ECD1901E1CE5109E10201C66920
:1020D000C7690101CD6BCE6B010ECF6FD06BC6C24D
:1020E000E6FFC7C2E6FF1CDBE552E5520101010E27
:1020F000EB1901E1EC511CE1ED2B000EEE23EE3566
:1021000004E2ED510708000EEE5512E2ED6BEE6BA6
:10211000EB6BEC6B0201C46BC56BC4C2E6FFC5C2BE
:10212000E6FF25DBE552E552010E0101F76FF86B82
:10213000EB51EC1170E1020182B333D00101010EC9
:10214000F71901E1F8511AE1F92B000EFA23FA35DB
:1021500004E2F9510F08000EFA5510E2F96BFA6B20
:10216000F76BF86BCB6BCC6B0201C46BC56BC4C255
:10217000E6FFC5C2E6FFFBDAE552E5520101010EBA
:10218000F51901E1F6510DE10201C46BC56BC4C242
:10219000E6FFC5C2E6FFEBDAE552E5520101F56B59
:1021A000F66B020182A312D00201C669C769C6C2DA
:1021B000E6FFC7C2E6FFB4DAE552E5520101CD6B96
:1021C000CE6B010EE76FE86BF56FF66B0101010E48
:1021D000E71901E1E8511FE1E52B000EE623090EA6
:1021E000E6AF02D0D89003D0E55D000EE65913E3C8
:1021F000E56BE66BE76BE86B010E0201C46FC56B24
:10220000C4C2E6FFC5C2E6FFB2DAE552E552010EEE
:102210000101EB6FEC6B020183B313D00101010EDE
:10222000E91901E1EA510DE10201C46BC56BC4C2B9
:10223000E6FFC5C2E6FF9BDAE552E5520101E96B14
:10224000EA6B020183A319D0080EE66E650EE66EF6
:10225000000EE66E55EC34F0E552E552E552010E03
:102260000101E96FEA6B0201C46FC56BC4C2E6FFEE
:10227000C5C2E6FF7CDAE552E552020183A10FD028
:10228000010E0101D96FDA6BE90EE66E640EE66E9F
:10229000000EE66E55EC34F0E552E552E5520101D0
:1022A000010EEF1901E1F05132E10201C669C7697F
:1022B000C6C2E6FFC7C2E6FF33DAE552E5520101C6
:1022C000CD6BCE6B010EF16FF26BF11901E1F251A2
:1022D0001EE1F32B000EF423090EF4AF02D0D890C8
:1022E00003D0F35D000EF45912E3F36BF46BF16B62
:1022F000F26B010E0201C46FC56BC4C2E6FFC5C21A
:10230000E6FF35DAE552E5520101EF6BF06BD9CF0C
:10231000E1FFE552E7CFD9FF1200D9CFE6FFE1CFC9
:10232000D9FF040EE126020182AF12D00101D56B64
:10233000D66B020E0201D86FD96BCF0EE66E640E1B
:10234000E66E000EE66E55EC34F0E552E552E552CD
:10235000020183A512D00101D56BD66B030E0201D9
:10236000D86FD96BB00EE66E640EE66E000EE66EA8
:1023700055EC34F0E552E552E552020183A712D044
:102380000101D56BD66B040E0201D86FD96B920E8A
:10239000E66E640EE66E000EE66E55EC34F0E55225
:1023A000E552E5520101010ED91901E1DA5106E1C8
:1023B000D56BD66B040E0201D86FD96BFB0EDBCF49
:1023C0002BF0FC0EDBCF2CF0D8902C5004E63C0E0A
:1023D0002B5C000E2C580DE3FB0EDBCF2DF0FC0E1A
:1023E000DBCF2EF02E3404E22D50C808000E2E5400
:1023F00006E2010E0101D56FD66BD96BDA6B0101D4
:10240000D551D61101E053D1040E0201D81901E1D2
:10241000D95101E1DBD0030ED81901E1D9516EE0A9
:10242000020ED81901E1D95101E041D1FD0EDBCFF7
:102430001DF0FE0EDBCF1EF0CA511D5C2B6ECB5182
:102440001E582C6E020E2BC0DBFF030E2CC0DBFFD0
:10245000020EDBCFE6FF030EDBCFE6FF830EE66E58
:10246000640EE66E000EE66E55EC34F0F56E050E69
:10247000E15EF550020EDBCF2BF0030EDBCF2CF02C
:10248000D8802C5004E7EC0E2B5CFF0E2C5803E296
:102490000A0EDE6EDD6A020EDBCF2BF0030EDBCF01
:1024A0002CF02C3404E22B501408000E2C5403E2C0
:1024B000FE0EDE6EDD6A020EDBCF2BF0030EDBCFED
:1024C0002CF0D8802C5004E7EC0E2B5CFF0E2C581F
:1024D00014E3020EDBCF2DF0030EDBCF2EF02E34F3
:1024E00004E22D501408000E2E5407E37F0EDE6E1A
:1024F000DD6A010E0101D56FD66BD9D0FD0EDBCFA1
:102500001DF0FE0EDBCF1EF0CC511D5C2B6ECD51AD
:102510001E582C6E020E2BC0DBFF030E2CC0DBFFFF
:10252000020EDBCFE6FF030EDBCFE6FF830EE66E87
:10253000640EE66E000EE66E55EC34F0F56E050E98
:10254000E15EF550020EDBCF2BF0030EDBCF2CF05B
:10255000D8802C5004E7EC0E2B5CFF0E2C5803E2C5
:102560000A0EDE6EDD6A020EDBCF2BF0030EDBCF30
:102570002CF02C3404E22B501408000E2C5403E2EF
:10258000FE0EDE6EDD6A020EDBCF2BF0030EDBCF1C
:102590002CF0D8802C5004E7EC0E2B5CFF0E2C584E
:1025A00014E3020EDBCF2DF0030EDBCF2EF02E3422
:1025B00004E22D501408000E2E5407E37F0EDE6E49
:1025C000DD6A010E0101D56FD66B71D0FD0EDBCF38
:1025D0001DF0FE0EDBCF1EF0D0511D5C2B6ED151D5
:1025E0001E582C6E020E2BC0DBFF030E2CC0DBFF2F
:1025F000020EDBCFE6FF030EDBCFE6FF830EE66EB7
:10260000640EE66E000EE66E55EC34F0F56E050EC7
:10261000E15EF550020EDBCF2BF0030EDBCF2CF08A
:10262000D8802C5004E7EC0E2B5CFF0E2C5803E2F4
:102630000A0EDE6EDD6A020EDBCF2BF0030EDBCF5F
:102640002CF02C3404E22B501408000E2C5403E21E
:10265000FE0EDE6EDD6A020EDBCF2BF0030EDBCF4B
:102660002CF0D8802C5004E7EC0E2B5CFF0E2C587D
:102670001DE3020EDBCF2DF0030EDBCF2EF02E3448
:1026800004E22D501408000E2E5410E37F0EDE6E6F
:10269000DD6A010E0101D56FD66BD91901E1DA515E
:1026A00005E1D96BDA6B010EEF6FF06B00D0010121
:1026B000010ED51901E1D65124E1FB0EDBCF2BF041
:1026C000FC0EDBCF2CF0D8902C5004E6730E2B5C64
:1026D000000E2C5811E3FB0EDBCF2DF0FC0EDBCFF0
:1026E0002EF02E3404E22D509108000E2E5404E3F7
:1026F0007F0EDE6EDD6A05D0FB0EDBCFDEFFDBCFAB
:10270000DDFFDECF2BF0DDCF2CF02BC0F3FF2CC094
:10271000F4FF00D0D9CFE1FFE552E7CFD9FF120097
:10272000D9CFE6FFE1CFD9FFFD0EDBCF1DF0FE0EC6
:10273000DBCF1EF0E8681D1802E1E8681E1810E003
:102740001D5001E11E5009E0010E1D1801E11E504F
:1027500001E009D08D828C9206D08D928C9203D0AC
:102760008D928C8200D0E552E7CFD9FF1200D9CFED
:10277000E6FFE1CFD9FFFD0EDBCF1DF0FE0EDBCF74
:102780001EF0E8681D1802E1E8681E1825E01D50DB
:1027900001E11E5010E0010E1D1801E11E5001E084
:1027A0001ED00101CB51CC1105E18D808C90010E22
:1027B000CB6FCC6B14D00101010ECB1901E1CC51D0
:1027C00005E18D908C80CB6BCC6B09D0CB51CC11BB
:1027D00002E18D908C9003D08D908C8000D0E552DA
:1027E000E7CFD9FF1200D9CFE6FFE1CFD9FF060E20
:1027F000E1267F0EF36E040EF3CFDBFF050EDB6ADE
:102800000101D36BD46BA70EE66EF5EC2FF0E55209
:10281000F3CFDEFFF4CFDDFFFD0EDBCF1DF0FE0EAC
:10282000DBCF1EF01D5001E11E5001E12ED1040E40
:102830001D1801E11E5001E1C9D0030E1D1801E170
:102840001E5065E0020E1D1801E11E5001E029D165
:102850000201CA51DE5C2B6ECB51DD582C6E020E8C
:102860002BC0DBFF030E2CC0DBFF020EDBCF2BF0F7
:10287000030EDBCF2CF0D8802C5004E7EC0E2B5C41
:10288000FF0E2C5808E24B0EF36E040EF3CFDBFF65
:10289000050EDB6A3BD0020EDBCF2BF0030EDBCF45
:1028A0002CF02C3404E22B501408000E2C5408E2B7
:1028B000AF0EF36E040EF3CFDBFF050EDB6A26D0FE
:1028C000020EDBCF2BF0030EDBCF2CF0D8802C5088
:1028D00004E7EC0E2B5CFF0E2C5818E3020EDBCF46
:1028E0002DF0030EDBCF2EF02E3404E22D50140811
:1028F000000E2E540BE37F0EF36E040EF3CFDBFFBE
:10290000050EDB6A010E0101D36FD46BCAD0020140
:10291000CC51DE5C2B6ECD51DD582C6E020E2BC0DF
:10292000DBFF030E2CC0DBFF020EDBCF2BF0030E10
:10293000DBCF2CF0D8802C5004E7EC0E2B5CFF0E84
:102940002C5808E24B0EF36E040EF3CFDBFF050E9E
:10295000DB6A3BD0020EDBCF2BF0030EDBCF2CF07B
:102960002C3404E22B501408000E2C5408E2AF0E55
:10297000F36E040EF3CFDBFF050EDB6A26D0020EEA
:10298000DBCF2BF0030EDBCF2CF0D8802C5004E7EC
:10299000EC0E2B5CFF0E2C5818E3020EDBCF2DF053
:1029A000030EDBCF2EF02E3404E22D501408000E5F
:1029B0002E540BE37F0EF36E040EF3CFDBFF050EF8
:1029C000DB6A010E0101D36FD46B6BD00201D051D1
:1029D000DE5C2B6ED151DD582C6E020E2BC0DBFF5E
:1029E000030E2CC0DBFF020EDBCF2BF0030EDBCF80
:1029F0002CF0D8802C5004E7EC0E2B5CFF0E2C58EA
:102A000008E24B0EF36E040EF3CFDBFF050EDB6A1C
:102A10003BD0020EDBCF2BF0030EDBCF2CF02C349F
:102A200004E22B501408000E2C5408E2AF0EF36E93
:102A3000040EF3CFDBFF050EDB6A26D0020EDBCFE0
:102A40002BF0030EDBCF2CF0D8802C5004E7EC0EDB
:102A50002B5CFF0E2C5818E3020EDBCF2DF0030E7B
:102A6000DBCF2EF02E3404E22D501408000E2E542D
:102A70000BE37F0EF36E040EF3CFDBFF050EDB6A74
:102A8000010E0101D36FD46B0CD07F0EF36E040ED8
:102A9000F3CFDBFF050EDB6A010E0101D36FD46BB0
:102AA00000D0040EDBCF6EF2DBCF6FF2D9CFE1FFA7
:102AB000E552E7CFD9FF1200D9CFE6FFE1CFD9FF2A
:102AC0000A0EE12602018851E66ED950040FE96E24
:102AD000DACFEAFFE552E750EE6EED6AA70EE66E3A
:102AE000F5EC2FF0E552F3CFDEFFF4CFDDFF02016E
:102AF0008C51E66ED950060FE96EDACFEAFFE55247
:102B0000E750EE6EED6A82B902D00101FD6BD9503B
:102B1000040FE96EDACFEAFF960ED880EE54000E6D
:102B2000ED5407E2020EF36E080EF3CFDBFF090E41
:102B3000DB6A040EDBCF2BF0050EDBCF2CF0640E2E
:102B40002B5C000E2C5812E3D950040FE96EDACF3B
:102B5000EAFF960ED880EE54000EED5407E3030E04
:102B6000F36E080EF3CFDBFF090EDB6A040EDBCF3A
:102B70002BF0050EDBCF2CF0640E2B5C000E2C58D6
:102B800007E2040EF36E080EF3CFDBFF090EDB6ADB
:102B9000060EDBCF2BF0070EDBCF2CF0640E2B5C88
:102BA000000E2C5807E2050EF36E080EF3CFDBFF84
:102BB000090EDB6A02018251100B01E100D1825142
:102BC000100B01E0010E0101FD5D01E1F8D0080EDE
:102BD000DBCF1DF0090EDBCF1EF0040E1D1801E146
:102BE0001E5001E1B1D0030E1D1801E11E5071E02D
:102BF000020E1D1801E11E5031E0050E1D1801E105
:102C00001E5001E0DCD0DECFCEF2DDCFCFF20201EC
:102C1000CE51E76E020EE7CFDBFFCFC22BF02C6A5E
:102C2000FF0E2B16000E2C16030E2BC0DBFF020E20
:102C3000DBCFE6FF090EE66EE66AE9EC0EF0E55240
:102C4000E552E552030EDBCFE6FF0A0EE66EE66ABA
:102C5000E9EC0EF0E552E552E552B1D0DECFCAF212
:102C6000DDCFCBF20201CA51E76E020EE7CFDBFFE8
:102C7000CBC22BF02C6AFF0E2B16000E2C16030E67
:102C80002BC0DBFF020EDBCFE6FF030EE66EE66A2B
:102C9000E9EC0EF0E552E552E552030EDBCFE6FF1C
:102CA000040EE66EE66AE9EC0EF0E552E552E552F6
:102CB000CAC2E6FFCBC2E6FF6D0EE66E640EE66E9C
:102CC000000EE66E55EC34F0F56E050EE15EF55043
:102CD00076D0DECFCCF2DDCFCDF20201CC51E76E63
:102CE000020EE7CFDBFFCDC22BF02C6AFF0E2B16B6
:102CF000000E2C16030E2BC0DBFF020EDBCFE6FF0F
:102D0000050EE66EE66AE9EC0EF0E552E552E55294
:102D1000030EDBCFE6FF060EE66EE66AE9EC0EF088
:102D2000E552E552E552CCC2E6FFCDC2E6FF560EB3
:102D3000E66E640EE66E000EE66E55EC34F0F56E4F
:102D4000050EE15EF5503BD0DECFD0F2DDCFD1F203
:102D50000201D051E76E020EE7CFDBFFD1C22BF0AC
:102D60002C6AFF0E2B16000E2C16030E2BC0DBFF59
:102D7000020EDBCFE6FF070EE66EE66AE9EC0EF028
:102D8000E552E552E552030EDBCFE6FF080EE66E94
:102D9000E66AE9EC0EF0E552E552E552D0C2E6FFF4
:102DA000D1C2E6FF400EE66E640EE66E000EE66EE1
:102DB00055EC34F0F56E050EE15EF55000D0D9CF3C
:102DC000E1FFE552E7CFD9FF1200D9CFE6FFE1CF0F
:102DD000D9FF020EE126090EE66EE66ACFEC0EF090
:102DE000E552E552DF6E0A0EE66EE66ACFEC0EF0B3
:102DF000E552E552E76E010EE7CFDBFFDB502B6EAD
:102E00002C6AFF0E2B16000E2C162BC02CF02B6AF2
:102E1000DFCF2DF0FF0E2D1402012B10CE6F2CC032
:102E2000CFF2350EE66E640EE66E000EE66E55ECE1
:102E300034F0E552E552E552010EE66EE66ACFEC5B
:102E40000EF0E552E552DF6E020EE66EE66ACFEC5A
:102E50000EF0E552E552E76E010EE7CFDBFFDB50E7
:102E60002B6E2C6AFF0E2B16000E2C162BC02CF08E
:102E70002B6ADFCF2DF0FF0E2D1402012B10C86F2F
:102E80002CC0C9F2030EE66EE66ACFEC0EF0E552F6
:102E9000E552DF6E040EE66EE66ACFEC0EF0E55208
:102EA000E552E76E010EE7CFDBFFDB502B6E2C6A9D
:102EB000FF0E2B16000E2C162BC02CF02B6ADFCF2A
:102EC0002DF0FF0E2D1402012B10CA6F2CC0CBF277
:102ED000CAC2E6FFCBC2E6FF280EE66E640EE66EBF
:102EE000000EE66E55EC34F0F56E050EE15EF55021
:102EF000050EE66EE66ACFEC0EF0E552E552DF6EA7
:102F0000060EE66EE66ACFEC0EF0E552E552E76E8D
:102F1000010EE7CFDBFFDB502B6E2C6AFF0E2B166A
:102F2000000E2C162BC02CF02B6ADFCF2DF0FF0EDD
:102F30002D1402012B10CC6F2CC0CDF2CCC2E6FFB9
:102F4000CDC2E6FF1A0EE66E640EE66E000EE66E69
:102F500055EC34F0F56E050EE15EF550070EE66EA9
:102F6000E66ACFEC0EF0E552E552DF6E080EE66E33
:102F7000E66ACFEC0EF0E552E552E76E010EE7CFC0
:102F8000DBFFDB502B6E2C6AFF0E2B16000E2C166F
:102F90002BC02CF02B6ADFCF2DF0FF0E2D14020179
:102FA0002B10D06F2CC0D1F2D0C2E6FFD1C2E6FF09
:102FB0000F0EE66E640EE66E000EE66E55EC34F013
:102FC000F56E050EE15EF550D9CFE1FFE552E7CF92
:102FD000D9FF1200D9CFE6FFE1CFD9FF040EE126D9
:102FE000AF0EE66EF5EC2FF0E552F3CFDEFFF4CF37
:102FF000DDFF0101010EE11901E1E2510AE10201E7
:10300000608D8150400B01E0010EE66E1CEC31F04A
:10301000E5520101E151E21101E058D1DECF2BF080
:10302000DDCF2CF0D8902C5004E64B0E2B5C000E1C
:103030002C580CE3DECF2DF0DDCF2EF0D8902E50A3
:1030400004E6FC0E2D5C030E2E5804E3010EE16F26
:10305000E26B3CD1DECF2BF0DDCF2CF02C3404E240
:103060002B506608000E2C5405E3020EDB6A030E9B
:10307000DB6A44D0DECF2BF0DDCF2CF0D8902C5083
:1030800004E6990E2B5C030E2C5808E3FA0EF36E3F
:10309000020EF3CFDBFF030EDB6A30D0DECF2FF062
:1030A000DDCF30F0660E2F5E000E305A2FC01DF0BF
:1030B00030C01EF0A3EC2DF01CC02BF01DC02CF076
:1030C0001EC02DF01FC02EF0F60E216E280E226EAF
:1030D0009C0E236E3E0E246E2BC01CF02CC01DF0E7
:1030E0002DC01EF02EC01FF0B6EC2DF094EC2EF08B
:1030F000020E1DC0DBFF030E1EC0DBFF020EDBCF86
:103100002BF0030EDBCF2CF0D8902C5004E65F0E92
:103110002B5C000E2C5804E20201D26BD36B8D8421
:10312000020EDBCF2BF0030EDBCF2CF0D8902C500F
:1031300004E65F0E2B5C000E2C581DE3020EDBCF65
:103140002DF0030EDBCF2EF001012E50DE19E8AE7C
:1031500002D0DE3504D0DD512D5CDE512E580BE25D
:103160000201010ED21901E1D35101E18D94D25136
:10317000D31101E18D84020EDBCF2BF0030EDBCFE8
:103180002CF001012C50DE19E8AE02D0DE3504D05F
:10319000DD512B5CDE512C5805E38D94010E0201AC
:1031A000D26FD36B020EDBCF2BF0030EDBCF2CF0F4
:1031B000D8902C5004E6190E2B5C000E2C5803E31B
:1031C0000201618502D002016195020EDBCF2BF076
:1031D000030EDBCF2CF0D8902C5004E6280E2B5C8D
:1031E000000E2C5802E3618301D06193020EDBCF05
:1031F0002BF0030EDBCF2CF0D8902C5004E6370ECA
:103200002B5C000E2C5802E3618101D06191020E0B
:10321000DBCF2BF0030EDBCF2CF0D8902C5004E644
:10322000460E2B5C000E2C5802E3608F01D0609F8D
:10323000020EDBCF2BF0030EDBCF2CF0D8902C50FE
:1032400004E6550E2B5C000E2C5802E3608B01D077
:10325000609B020EDBCF2BF0030EDBCF2CF0D8905F
:103260002C5004E6640E2B5C000E2C5802E36085A3
:1032700001D06095020EDBCF2BF0030EDBCF2CF0DC
:10328000D8902C5004E6730E2B5C000E2C5802E3F1
:10329000608101D060918DA460978DB46087609942
:1032A000609D020EDBCF2BF0030EDBCF2CF01B0E4C
:1032B0002B5E000E2C5AD8902C5004E63C0E2B5C52
:1032C000000E2C5802E2608301D06093D9CFE1FF59
:1032D000E552E7CFD9FF1200D9CFE6FFE1CFD9FF02
:1032E000020EE126A70EE66EF5EC2FF0E552F3CFC5
:1032F000DEFFF4CFDDFFDECF2BF0DDCF2CF00201BF
:10330000CE512B5CCF512C580DE2C469C569C4C2A3
:10331000E6FFC5C2E6FFB7EC13F0E552E552020145
:10332000D66BD76BDECF2BF0DDCF2CF0CE512B5CE4
:10333000CF512C5811E3D651D7110EE1C46BC56B98
:10334000C4C2E6FFC5C2E6FFB7EC13F0E552E55292
:10335000010E0201D66FD76BD9CFE1FFE552E7CF5F
:04336000D9FF12007F
:0C336400EEEC1EF0FB0EDBCFF3FFDB06EF
:10337000F35000090AE03CEC1FF0FA0EA7EC1FF036
:10338000F3E12C1CF1E1010E01D0000E1DEF1FF046
:10339000EEEC1EF03B0EE12402E3E168E652E16E42
:1033A000010EDB6A020EDB6AF90EDBCFF6FFFA0EC6
:1033B000DBCFF7FFFB0EDBCFF8FF0800F550DF6E29
:1033C000DF5002E143EF1EF0250EDF5C02E036EF36
:1033D0001EF0030EDB6A040EDB6A050EDB6A060EC6
:1033E000DB6A070EDB6A56EC1EF02D0EDF5C0CE08C
:1033F0002B0EDF5C09E0200EDF5C06E0230EDF5CB5
:1034000003E0300EDF5C1AE1DF50300A14E0130AEB
:103410000FE0030A0AE00B0A05E0060AE4E1030EE6
:10342000DB80E1D7030EDB82DED7030EDB84DBD744
:10343000030EDB86D8D7030EDB88D5D72A0EDF5CD8
:103440001BE152EC1EF0A0EC1EF010E0030EDB803E
:103450001D681E68130EDBCF22F0140EDBCF23F0A5
:1034600049EC2EF0040E1BC0DBFF03D0130E89ECD9
:103470001EF056EC1EF00BD0090EDB6AF7EC1EF0C6
:1034800003E06BEC1FF0FAD7090E89EC1EF0030E77
:10349000DBB0DB982E0EDF5C1BE156EC1EF02A0E33
:1034A000DF5C0BE152EC1EF0A0EC1EF003E1130E0A
:1034B000DBEC1EF056EC1EF00BD0090EDB6AF7ECCD
:1034C0001EF003E06BEC1FF0FAD7090EDBEC1EF0E8
:1034D000680EDF5C07E156EC1EF0680EDF5C1DE154
:1034E000030E18D0740EDF5C17E07A0EDF5C14E078
:1034F000480EDF5C06E0540EDF5C03E05A0EDF5C32
:1035000002E1020E07D06C0EDF5C03E06A0EDF5CA6
:1035100004E1010E2EEC1FF0C9DBDF506E0A01E161
:1035200081D31E0A01E192D1200A01E18FD13F0A25
:1035300001E149D11A0A01E146D10D0A01E143D165
:10354000200A01E140D13A0A01E13DD1200A01E11E
:103550003AD1260A01E135D10D0A01E132D11A0A28
:1035600001E1D9D0200A4AE0300A1FE0460A0EE005
:10357000250A01E085D3D950F90FE96EFF0EDA2054
:10358000EA6E010EEE5E000EEE5AEE5A3CEC1FF0B3
:10359000250EE66E95DB03E12C1C01E16BD338ECC4
:1035A0001FF001E26DD3DB2A6BD3080EDB6A040E39
:1035B000DB50010806E2040EDB0400EC1FF0DB50D8
:1035C0008BDB080EDB5009E0030EDB50010B05E13D
:1035D00072DB01E04FD3080EDB6A64DBEFCFDFFF65
:1035E000B0EC1FF003E12C1C01E144D338EC1FF0D8
:1035F00001E3DB2A60DB01E143D33CD3070EDB5060
:1036000002080FE17CEC1FF0030E43EC1FF00E0EDE
:10361000EECFDBFF0F0EEECFDBFF100EEECFDBFFAA
:1036200020D0F70EDBCF2EF0F80EDBCF2FF0020EFE
:103630002E5E000E2F5AF70E2EC0DBFFF80E2FC0A5
:10364000DBFF2EC0E9FF2FC0EAFF33EC1FF02D6A2D
:103650000E0E2BC0DBFF0F0E2CC0DBFF100E2DC09B
:10366000DBFF0E0EDBCFE6FF0F0EDBCFE6FF100E0B
:10367000DBCFE6FF30EC34F0E552E552E552130EB5
:103680001CC0DBFF140E1DC0DBFF060EDB5005E087
:10369000130E77EC1FF001E26ADB9BEC1FF002E2F5
:1036A000130E37DB5EEC1FF006E0040E77EC1FF024
:1036B00002E2050E2EDB030EDBB005D0FCDA01E0E2
:1036C000D9D2080EDB6A090EDB6A0E0EDBCFF6FFDD
:1036D0000F0EDBCFF7FF100EDBCFF8FF0800F55021
:1036E000DF6EDF5014E0A1EC1FF011E2B0EC1FF030
:1036F00003E12C1C01E1BED2BBDB01E3DB2A090E96
:10370000DB2AD9500E0FE96E000ECBDBE7D7D3DAF8
:1037100001E1B6D2AFD2C6DA110EEECFDBFF120E48
:10372000EDCFDBFF110EDBCFE6FF120EDBCFE6FFA6
:1037300022EC34F0E552E552130EF3CFDBFF140E0A
:10374000F4CFDBFF060EDB5004E0130ED0DB01E20A
:103750000EDB9BEC1FF002E2130EDBDAAFDB05E0C1
:10376000040EC5DB02E2050ED4DA030EDBB005D091
:10377000A2DA01E07FD2080EDB6A090EDB6A110EC5
:10378000DBCFE9FF120EDBCFEAFFEFCFDFFFDF5029
:1037900014E0D7DB12E2E4DB03E12C1C01E16AD286
:1037A00067DB01E3DB2A090EDB2A110EDB2ADBCF04
:1037B000E9FF120EE8E3DB2AE6D77DDA01E160D209
:1037C00059D2030EDB8E070EDB0410E195DB040EED
:1037D0005ADB0A0EEECFDBFF0B0EEECFDBFF0C0E3B
:1037E000EECFDBFF0D0EEECFDBFF6CD0070EDB5014
:1037F00003082CE1030EDBAE0DD0B2DA020E76DA4E
:10380000EFCF2BF02C6A2D6A2E6A2BAE39D02C68A4
:103810002D6835D0F70EDBCF2CF0F80EDBCF2DF076
:10382000020E2C5E000E2D5AF70E2CC0DBFFF80E98
:103830002DC0DBFF2CC0E9FF2DC0EAFFEFCF2BF03E
:103840000A0E2BC0DBFF0B0EDB6A38D0070EDB50F5
:10385000020809E1030EDBAE04D059DB2DAE10D017
:103860000ED055DB0DD0030EDBAE12D079DA020E8E
:103870003DDAF9DA2D6A2E6A2CAE02D02D682E6858
:10388000E2DA0C0E2DC0DBFF0D0E2EC0DBFF1AD0CE
:10389000F70EDBCF2DF0F80EDBCF2EF0020E2D5EF3
:1038A000000E2E5AF70E2DC0DBFFF80E2EC0DBFFE8
:1038B0002DC0E9FF2EC0EAFFD6DAC5DA0C0EDB6AAE
:1038C0000D0EDB6A060EDB5005E1010EF36E050EF0
:1038D000F3CFDBFF150EDB6A160EDB6AD950370F0C
:1038E0002B6E000EDA202C6E390E2BC0DBFF3A0E49
:1038F0002CC0DBFF380EDB6A080EDB6A0A0EAEDA7C
:10390000DF50780A12E0200A10E0280A0CE0200AB2
:103910000AE03F0A06E00D0A02E0200A08E1020E72
:1039200005D0080E03D0080EDF26100E97DA030E1E
:10393000DBBE02D0DB92DB94DB50800B26E08ADA20
:10394000030EEB50000AE8AE02D0D89008D0000E6B
:10395000EE5C000EEE58000EEE58000EEE5815E22A
:1039600011DA2068216822682368E1EC34F00A0E3D
:1039700017C0DBFF0B0E18C0DBFF0C0E19C0DBFFFE
:103980000D0E1AC0DBFF2D0E08D0030EDBA202D0F5
:103990002B0E03D0DBA408D0200EF36E170EF3CF4E
:1039A000DBFF150EDB2A02D0170EDB6A050EDB509B
:1039B00003E1B5D901E189D0980E2B6E6D0E2C6E06
:1039C000000E2D6E070EDBCF2EF02F6A306A316AA3
:1039D0002EC020F02FC021F030C022F031C023F0E3
:1039E000D1D914EC36F02B501724F36E2C5018203C
:1039F000F46E2D501920F86EF4CFF7FFF3CFF6FFD9
:103A00000800090EF5CFDBFF580EDF5C0FE1610EF9
:103A1000F36E090E79D90AE3200E2B6E090EDBCF67
:103A2000E7FF2B50E75E090EE7CFDBFF070EDBCF8A
:103A30002BF02C6A2D6A2E6A0DDA2BC020F02CC0D8
:103A400021F02DC022F02EC023F0EECF1BF0EECFE0
:103A50001CF0EECF1DF0EFCF1EF014EC36F01EC0C0
:103A6000EDFF1DC0EDFF1CC0EDFF1BC0EFFF390EC9
:103A7000DBCFE9FFDB063A0EDBCFEAFF01E2DB0634
:103A8000090EDBCFEFFF150EDB2A49D995E1030EB6
:103A9000DBA61DD06F0EDF5C06E1BFD918E3150E63
:103AA000DB2859DA14D0780EDF5C09E0580EDF5CB1
:103AB00006E0620EDF5C03E0420EDF5C08E1020E0E
:103AC000F36E160EF3CFDBFF02D0150EDB6A030E8A
:103AD000DB50100B0EE0040EDBCF2BF0050EDB509D
:103AE000D8802B5406E2060EDB5003E1040EDB50B7
:103AF00032DA93D90AE2050EDBCFE7FF150EDB5071
:103B0000E75E050EE7CFDBFF02D0050EDB6A040E91
:103B1000DBCF2BF0160E43D9D8802B5414E2160EAF
:103B2000DBCFE6FF150EDBCFE6FF040EDBCFE6FFB3
:103B3000050EDB50E552E75CE552D880E754E552CC
:103B4000D880E7545DD9030EDB50010B0BE1080E62
:103B5000DB5008E0B0D801E08DD0080EDB50BCD8B7
:103B6000080EDB6A170EDB5007E086D9170EEFD977
:103B700003E12C1C01E17ED0160EDB5016E07CD94F
:103B8000300EE66E9DD802E12C1C74E075D9DFCFB3
:103B9000E6FF9FEC34F0E552E552E552F4CF2CF00D
:103BA0000001F31C02E12C1C65E0050EDBCF2BF0BD
:103BB000160EDB50D8802B5409E2050EDBCFE7FF51
:103BC000160EDB50E75E050EE7CFDBFF300EE66E2C
:103BD000050EC9D94FE1390EDB2ADBCFE9FF3A0EDA
:103BE00001E3DB2ADBCFEAFF090EEFCFDBFFDB507F
:103BF0000EE042D9090EABD902E12C1C3BE0390E94
:103C0000DB2ADBCFE9FF3A0EEDE3DB2AEBD753D813
:103C100031E1160EDBCFE6FF080EC1D8E552E724EE
:103C20005BD82ED0070EDB50030A1CE0010A14E01B
:103C3000030A07E079D9DBCFEEFF020EDBCFEDFF01
:103C40001FD0F3D8306A2EAE02D02F6830682AD841
:103C5000BAD830C0EEFF14D0E8D82EBE2F6822D8D4
:103C6000B2D80ED061D9DBCFEFFF0AD079D905E108
:103C70002C1C03E1F368F46810D0FAD801E3DB2AC6
:103C800077D9DDEF19F0010EDBCF2BF0020EDBCF81
:103C90002CF02BC0F3FF2CC0F4FFD9CFE1FFDACF1B
:103CA000E2FFCBD029D9020E43EF1FF061D9080003
:103CB000F550DF6E1200200EE66E080EB3EF1FF017
:103CC0009FEC34F0E552E552E552F3CF2BF0F4CF00
:103CD0002CF00001F31C12002B6E2C6AD950010F3E
:103CE0004DD92B50EE262C50ED2212002F5E000EE7
:103CF000305AF70E2FC0DBFFF80E30C0DBFF2FC0AD
:103D0000E9FF30C0EAFF1200DBCFF4FFF350F45CB0
:103D10001200DB50E76E040EE7CFDBFF12000A0E45
:103D2000DBCF2BF00B0EDBCF2CF00C0EDBCF2DF00E
:103D30000D0EDBCF2EF02B502C102D102E1012005C
:103D4000130EEECFDBFF140EEDCFDBFF130EDBCF38
:103D50002BF0140EDBCF2CF00001800E2C1412007F
:103D6000F70EDBCF2FF0F80EDBCF30F01200050E90
:103D7000DB50E66ED950130F01D9E552E750EE6ED5
:103D8000ED6A12000A0EDBCF1BF00B0EDBCF1CF02E
:103D90000C0EDBCF1DF00D0EDBCF1EF01200DBCFC3
:103DA000E6FF150EDBCFE6FF050EDB50E552E724FC
:103DB000E552E7241200DB50CED8010EF36E060E5A
:103DC000F3CFDBFF1200EE50EFCFEAFFE96E2DC01C
:103DD000EEFF2EC0EEFF2FC0EEFF1200D9CFE6FFA0
:103DE000DACFE6FFE1CFD9FFE2CFDAFF1200DFCF73
:103DF000E6FFE66A81EC36F0E552E552F350120038
:103E0000E76E080EE7CFDBFF1200EECF2BF0EECF10
:103E10002CF0EFCF2DF02E6A1200050EDBCF2BF029
:103E2000150EDB50D8802B541200010EDBCF2DF085
:103E3000020EDBCF2EF02F6A1200E552E5CFDAFF3B
:103E4000E7CFD9FF12000A0E2BC0DBFF0B0E2CC0F0
:103E5000DBFF1200D9500A0FBEEF1FF0F36E070E02
:103E6000F3CFDBFF1200EECF2BF0EFCF2CF01200E0
:103E7000010EDB2A020E1200FC0EDBCFE6FFFD0E68
:103E8000DBCFE6FF12002B5E000E2C5AF70E2BC084
:103E9000DBFFF80E2CC0DBFF2BC0E9FF2CC0EAFFD4
:103EA0001200DA20EA6EEF2AEECFF6FF000EEF22C4
:103EB000EECFF7FFEF22EECFF8FF1200040EDBCFBC
:103EC000E6FF130EDB50E552E75C9ADFDB5004DFC0
:103ED000060EDB501200090EDB500A0DF350DF24F2
:103EE000D00FE76E090EE7CFDBFF56EF1EF0DB5079
:103EF000F36E050E84EF1EF0F70EDBCF2BF0F80EFD
:103F0000DBCF2CF01200DFCFE6FF60EF1EF028DFE2
:103F1000030EECDE05EF1FF0B2EC19F0E552E552AE
:103F2000E552E55200091200BDDEEE50EFCFEAFF88
:103F3000E96E010E1200130EDB50F36E040E84EFD7
:103F40001EF0040EDB50F36E090E84EF1EF0DBCF83
:103F5000E6FF60EF1EF0E76E050EE7CFDBFF120015
:103F60008BDF83EF1FF0DBCFE6FF86DF8CEF1FF0E8
:103F7000D950F90FE96EFF0E51EF1FF0E96E000EF8
:063F8000DA20EA6E1200D7
:0A3F8600D8CFE4FFE0CFE4FFE46EC3
:103F9000DACFE4FFE2CFDAFFE9CFE4FFEACFE4FFD4
:103FA000E652F2A202D0A5D802D09EB6D1D8E552F0
:103FB000E5CFEAFFE5CFE9FFE5CFDAFFE550E5CF52
:103FC000E0FFE5CFD8FF1000E66A010EE66E050EB1
:103FD000E66E4DEC35F0E552E552E5521200070E63
:103FE000B46E000E886E876E866E856E846E836EEC
:103FF000826E816E806E916E906E8F6E8E6E8D6E03
:104000008C6E8B6E8A6E896E2F0E926E93689C0EEC
:10401000946E956A966A9768040E986E0E0E9A6E64
:104020009968C16AF19EB0989C8EA26A9F6AA06A44
:104030009D6AA36AA56AC8DF9F86D08E9E969D86DC
:104040009382F06AF288F09EF098F192F09AF16A09
:10405000F28CF28E1200D9CFE6FFE1CFD9FFE65203
:10406000BEDF0201A097A0990201640EF36F020E59
:10407000F46FDF6A100EDF5C0AE2DF50EA6AF325B4
:10408000E96EF451EA227F0EEF6EDF2AF3D70201C8
:104090007D6B010E7E6FC20E7F6F0201A085020153
:1040A000826B836B0201606B626B636B010ED56E7A
:1040B000320ED76ECF0ED66ED59E600EE66E020E15
:1040C000E66E8BD8E552E5520201A093600EE66ED3
:1040D000020EE66E82D8E552E5520201A093E55247
:1040E000E552E7CFD9FF120082828088949292989D
:1040F0001200F2920201200EEF6F9F860201A0A92A
:1041000006D00201E00EEC6F000EED6F05D002014B
:10411000C00EEC6F000EED6F0201A0A1A079A0A768
:1041200006D00201800EEA6F000EEB6F05D002018F
:10413000A00EEA6F000EEB6FC9CFF0F2EAC2E9FF02
:10414000EBC2EAFFEA2B000EEB23EF50C96E120020
:104150009E96C9CFF0F20201EF51000823E2ECC2B3
:10416000E9FFEDC2EAFFEC2B000EED23F0C2EFFFFA
:10417000EAC2E9FFEBC2EAFFEA2BEB23EFCFF0F252
:10418000F0C2C9FFEF07EF510CE10201020E7E6F92
:104190000201A093A081320ED76ECF0ED66EF2949C
:1041A000D58E01D0C96A1200D9CFE6FFE1CFD9FF81
:1041B0000201A0A10ED0FD0EDBCFE6FFFE0EDBCF8D
:1041C000E6FF91EC2CF0E552E5529D960201A0919C
:1041D0009D86E552E7CFD9FF1200D9CFE6FFE1CFA8
:1041E000D9FF0201A0B332D0FD0EDBCFE9FFFE0EF6
:1041F000DBCFEAFF1E0EE926000EEA22EF5002088E
:1042000009E1FD0EDBCFE6FFFE0EDBCFE6FF69D84E
:10421000E552E552FD0EDBCFE9FFFE0EDBCFEAFFF4
:10422000150EE926000EEA22EF9EFD0EDBCFE6FF1B
:10423000FE0EDBCFE6FFFFEC2BF0E552E5529D963C
:104240000201A077A0839D8602017D2BE552E7CF76
:10425000D9FF12009D960201A0919D861200D9CF30
:10426000E6FFE1CFD9FF0001166BD950FD0FE96ED3
:10427000FF0EDA20EA6E010EEE1801E1ED5002E1C8
:10428000168101D0BA6AD950FB0FE96EFF0EDA2011
:10429000EA6E010EEE1801E1ED5002E1168301D045
:1042A000B76AD950F90FE96EFF0EDA20EA6E010EF7
:1042B000EE1801E1ED5002E1168501D0736AD95084
:1042C000F70FE96EFF0EDA20EA6E010EEE1801E13B
:1042D000ED5002E1168701D0706AE552E7CFD9FFB1
:1042E0001200D9CFE6FFE1CFD9FFFD0EDBCFE9FF0A
:1042F000FE0EDBCFEAFF1C0EE926000EEA22EF6A73
:10430000FD0EDBCFE9FFFE0EDBCFEAFF170EE9263D
:10431000000EEA22EF6AC6AE0ED0C69EFD0EDBCFBF
:10432000E9FFFE0EDBCFEAFF170EE926000EEA22B8
:10433000010EEF6E22D0F150800B10E0F250080B0E
:104340000DE0FD0EDBCFE9FFFE0EDBCFEAFF170E1F
:10435000E926000EEA22020EEF6E0FD0F0A60DD075
:10436000909EFD0EDBCFE9FFFE0EDBCFEAFF170EBE
:10437000E926000EEA22030EEF6E250EC61425086C
:1043800019E0FD0EDBCFE9FFFE0EDBCFEAFF1C0ECE
:10439000E926000EEA22010EEF6EFD0EDBCFE9FFEB
:1043A000FE0EDBCFEAFF170EE926000EEA22C6CF8B
:1043B000EFFF80D1C55019E0FD0EDBCFE9FFFE0E07
:1043C000DBCFEAFF1C0EE926000EEA22020EEF6E9A
:1043D000FD0EDBCFE9FFFE0EDBCFEAFF170EE9266D
:1043E000000EEA22C5CFEFFF65D1D0BE19D0FD0E79
:1043F000DBCFE9FFFE0EDBCFEAFF1C0EE926000E45
:10440000EA22030EEF6EFD0EDBCFE9FFFE0EDBCFDF
:10441000EAFF170EE926000EEA22D0CFEFFF4AD1BD
:104420009DB619D0FD0EDBCFE9FFFE0EDBCFEAFF14
:104430001C0EE926000EEA22040EEF6EFD0EDBCF05
:10444000E9FFFE0EDBCFEAFF170EE926000EEA2297
:104450009DCFEFFF2FD19C5019E0FD0EDBCFE9FF80
:10446000FE0EDBCFEAFF1C0EE926000EEA22050E47
:10447000EF6EFD0EDBCFE9FFFE0EDBCFEAFF170E7E
:10448000E926000EEA229CCFEFFF14D1080E9F5CB4
:1044900019E0FD0EDBCFE9FFFE0EDBCFEAFF1C0EBD
:1044A000E926000EEA22060EEF6EFD0EDBCFE9FFD5
:1044B000FE0EDBCFEAFF170EE926000EEA229FCFA1
:1044C000EFFFF8D0A25019E0FD0EDBCFE9FFFE0EA2
:1044D000DBCFEAFF1C0EE926000EEA22070EEF6E84
:1044E000FD0EDBCFE9FFFE0EDBCFEAFF170EE9265C
:1044F000000EEA22A2CFEFFFDDD0A55019E0FD0E9D
:10450000DBCFE9FFFE0EDBCFEAFF1C0EE926000E33
:10451000EA22080EEF6EFD0EDBCFE9FFFE0EDBCFC9
:10452000EAFF170EE926000EEA22A5CFEFFFC2D060
:10453000100EF214100819E0FD0EDBCFE9FFFE0E9D
:10454000DBCFEAFF1C0EE926000EEA22090EEF6E11
:10455000FD0EDBCFE9FFFE0EDBCFEAFF170EE926EB
:10456000000EEA22F2CFEFFFA5D0470EF11419E0BA
:10457000FD0EDBCFE9FFFE0EDBCFEAFF1C0EE926C6
:10458000000EEA220A0EEF6EFD0EDBCFE9FFFE0EF3
:10459000DBCFEAFF170EE926000EEA22F1CFEFFF8C
:1045A00089D0C00EF01419E0FD0EDBCFE9FFFE0E3E
:1045B000DBCFEAFF1C0EE926000EEA220B0EEF6E9F
:1045C000FD0EDBCFE9FFFE0EDBCFEAFF170EE9267B
:1045D000000EEA22F0CFEFFF6DD092A819D0FD0EA9
:1045E000DBCFE9FFFE0EDBCFEAFF1C0EE926000E53
:1045F000EA220C0EEF6EFD0EDBCFE9FFFE0EDBCFE5
:10460000EAFF170EE926000EEA2292CFEFFF52D002
:1046100093B019D0FD0EDBCFE9FFFE0EDBCFEAFF32
:104620001C0EE926000EEA220D0EEF6EFD0EDBCF0A
:10463000E9FFFE0EDBCFEAFF170EE926000EEA22A5
:1046400093CFEFFF37D03E0E94141C0819E0FD0EF7
:10465000DBCFE9FFFE0EDBCFEAFF1C0EE926000EE2
:10466000EA220E0EEF6EFD0EDBCFE9FFFE0EDBCF72
:10467000EAFF170EE926000EEA2294CFEFFF1AD0C8
:1046800097BE18D0FD0EDBCFE9FFFE0EDBCFEAFFB1
:104690001C0EE926000EEA220F0EEF6EFD0EDBCF98
:1046A000E9FFFE0EDBCFEAFF170EE926000EEA2235
:0C46B00097CFEFFFE552E7CFD9FF1200D3
:0446BC00D9CFE6FF6D
:1046C000E1CFD9FFF29CFD0EDBCFE9FFFE0EDBCF81
:1046D000EAFFEE52EF6AFD0EDBCFE9FFFE0EDBCF05
:1046E000EAFF540EE926000EEA22EF6AF28CE55248
:1046F000E7CFD9FF1200D9CFE6FFE1CFD9FFE652CD
:104700000101AE0E5D6F0F0E5E6FAD0E5F6F0F0E8F
:10471000606F010E086F080EE66E010EE66ECEDFCA
:10472000E552E55201016E0EB66F0F0EB76F6D0EBA
:10473000B86F0F0EB96F020E616F610EE66E010E5B
:10474000E66EBCDFE552E552150EE66E7C0EE66EB7
:10475000B2EC35F0E552E5529F989F9A949C948E66
:10476000AE50DF6EAE50DF6E9E9A150EE66E7C0E7A
:10477000E66E80EC35F0E552E552A59AA598989240
:1047800098846E50DF6E6E50DF6EA49A0101BA6B92
:10479000E552E552E7CFD9FF1200D9CFE6FFE1CFCE
:1047A000D9FFFD0EDBCFE9FFFE0EDBCFEAFFEF0402
:1047B00002E19D8801D0A388E552E7CFD9FF12001E
:1047C000D9CFE6FFE1CFD9FFD950FD0FE96EFF0E3B
:1047D000DA20EA6EEE50ED100AE19EA807D0080E2E
:1047E000E66E010EE66ED9DFE552E55209D0A4A8C7
:1047F00007D0610EE66E010EE66ECFDFE552E552A0
:10480000E552E7CFD9FF1200D9CFE6FFE1CFD9FFBC
:10481000D950FD0FE96EFF0EDA20EA6EEE50ED1072
:1048200005E1ABB2AB98AB889D8A04D06BB26B98B4
:104830006B88A38AE552E7CFD9FF1200D9CFE6FFF4
:10484000E1CFD9FFFD0EDBCFE9FFFE0EDBCFEAFFA4
:10485000EF0403E19E989D9802D0A498A398E55296
:10486000E7CFD9FF1200D9CFE6FFE1CFD9FFFD0E88
:10487000DBCFE9FFFE0EDBCFEAFFEE52EF500AE19D
:10488000FD0EDBCFE6FFFE0EDBCFE6FFD7DFE55206
:10489000E5522FD0FD0EDBCFE9FFFE0EDBCFEAFFA6
:1048A000020EE926000EEA22EECFF3FFEDCFF4FF71
:1048B000EE2AEF22F3CFE9FFF4CFEAFFEF50E66EE6
:1048C000FD0EDBCFE9FFFE0EDBCFEAFF570EE92638
:1048D000000EEA22EE50EFCFEAFFE96EE552E75014
:1048E000EF6EFD0EDBCFE9FFFE0EDBCFEAFFEE52EF
:1048F000EF06E552E7CFD9FF1200D9CFE6FFE1CFAF
:10490000D9FFE65201010651060A4FE0030A41E0D1
:10491000010A37E0070A2DE0010A1EE0030A0CE055
:10492000010A02E0066B4FD0066BFE0EDB50C90891
:1049300002E1010E066F47D0066B079BFE0EDB50AF
:10494000170802E1079D05D0FE0EDB50180801E1B3
:10495000078D020E066F37D0FE0EDBCF02F1DBCFE4
:1049600078F20251800B01E0010EBA6F030E066F60
:104970002AD0FE0EDBCF03F1DBCF79F2040E066FF7
:1049800022D0FE0EDBCF04F1DBCF7AF2050E066FEC
:104990001AD0FE0EDBCF05F1DBCF7BF207AD03D0E3
:1049A000060E066F01D0066B0ED0025103250425BA
:1049B0000525DF6EDF1CF36EFE0EDB50F35C01E1BC
:1049C000078B066B00D0E552E552E7CFD9FF120006
:1049D0009EAA0AD09E9A5DC1E9FF5EC1EAFFEF5030
:1049E000E66E8BDFE5521FD09EA807D0080EE66E5C
:1049F000010EE66E38DFE552E552A4AA0BD0A49A68
:104A0000B6C1E9FFB7C1EAFFEF50E66E38EC33F00C
:104A1000E55209D0A4A807D0610EE66E010EE66E3D
:104A200022DFE552E55212007BEF23F0D9CFE6FFFB
:104A3000E1CFD9FF590E1D6E1E6AFD0EDBCF22F0AD
:104A4000FE0EDBCF23F049EC2EF01BC0C7F11CC0DB
:104A5000C8F1080E0101C727010EC823F29CC7C187
:104A6000E9FFC8C1EAFF020EE926000EEA22FB0EAA
:104A7000DBCFEEFFFC0EDBCFEDFFC7C1E9FFC8C106
:104A8000EAFFEE52F90EDBCFEFFFF28CFD0EDBCF2B
:104A9000E6FFFE0EDBCFE6FF93DEE552E552E55280
:104AA000E7CFD9FF1200D9CFE6FFE1CFD9FFFD0E46
:104AB000DBCFE9FFFE0EDBCFEAFF590EEA02F3CFB0
:104AC000EAFFE902F3CFE9FFF450EA26080EE926EF
:104AD000010EEA22EE52EF50000801E2E8D7F80E8C
:104AE000DBCF2BF0F90EDBCF2CF02C3404E22B5073
:104AF0005008000E2C5407E2500EF36EF80EF3CF60
:104B0000DBFFF90EDB6AFA0EDBCFE6FFFB0EDBCF35
:104B1000E6FFFC0EDBCFE6FFBB0EE66E010EE66E97
:104B200009EC34F0F56E050EE15EF550F80EDBCFC2
:104B3000E6FFF90EDBCFE6FFBB0EE66E010EE66E7A
:104B4000FD0EDBCFE6FFFE0EDBCFE6FF6FDFF56E7F
:104B5000060EE15EF550000E00D0E552E7CFD9FF1A
:104B60001200D9CFE6FFE1CFD9FF590E1D6E1E6AA4
:104B7000FD0EDBCF22F0FE0EDBCF23F049EC2EF052
:104B80001BC0C9F11CC0CAF1080E0101C927010EE2
:104B9000CA23C9C1E9FFCAC1EAFF570EE926000EC0
:104BA000EA22EE50EFCFEAFFE96EFB0EDBCFEFFF1C
:104BB000D950FD0FE96EFF0EDA20EA6EEE50ED10CF
:104BC00003E19EA8FED702D0A4A8FED7E552E7CF06
:104BD000D9FF1200D9CFE6FFE1CFD9FF010109517A
:104BE000000801E2FBD75C515C2BEA6A0C0FE96E0E
:104BF000010EEA22FE0EDBCFEFFFDB500D0803E0D3
:104C0000500E5C5D0FE3F29C0C0E0A6F010E0B6FF1
:104C10005CC109F1F28C5C6B000EE66EE66AD0DDD9
:104C2000E552E552E552E7CFD9FF1200010107AD89
:104C300002D0010E02D0000E00D01200D9CFE6FF44
:104C4000E1CFD9FF020EE126010EDB6A010107ADBB
:104C500004D007BB02D0DB5068D0090EF36EFE0E05
:104C6000DBCFF4FFF350F45C13E2FE0EDB042B6E9B
:104C7000010E2B5204E0E846FE0B2B06FCE1DF6E32
:104C8000DF5001010515E76E010EE7CFDBFF4BD0CA
:104C9000110EF36EFE0EDBCFF4FFF350F45C14E262
:104CA000FE0EDB50F70F2B6E010E2B5204E0E84690
:104CB000FE0B2B06FCE1DF6EDF5001010415E76EF1
:104CC000010EE7CFDBFF2FD0190EF36EFE0EDBCF08
:104CD000F4FFF350F45C14E2FE0EDB50EF0F2B6E8A
:104CE000010E2B5204E0E846FE0B2B06FCE1DF6EC2
:104CF000DF5001010315E76E010EE7CFDBFF13D094
:104D0000FE0EDB50E70F2B6E010E2B5204E0E8463F
:104D1000FE0B2B06FCE1DF6EDF5001010215E76E92
:104D2000010EE7CFDBFFDB5000D0D9CFE1FFE5522A
:064D3000E7CFD9FF1200DD
:0A4D3600D9CFE6FFE1CFD9FF020E4E
:104D4000E126240EDE6EDD6AEAEC17F06CEC19F059
:104D5000E4EC35F0F3CF2BF0F4CF2CF02B502C10EB
:104D60005CE0E4EC35F0F3CF2DF0F4CF2EF02D50D5
:104D70000201AB1902E12E50AC194FE0010EAF1940
:104D800001E1B0511BE1010EAB1901E1AC5105E0AD
:104D9000020EAB1901E1AC5110E1E4EC35F0F3CFB8
:104DA0002BF0F4CF2CF00201AB512B1802E1AC51E7
:104DB0002C1803E0010EB76FB86B29D0020EAF19A3
:104DC00001E1B05124E1010EAB1901E1AC510FE05A
:104DD000020EAB1901E1AC510AE0030EAB1901E17F
:104DE000AC5105E0040EAB1901E1AC5110E1E4EC6B
:104DF00035F0F3CF2BF0F4CF2CF00201AB512B1890
:104E000002E1AC512C1803E0010EB76FB86BE4EC73
:104E100035F0F3CFABF2F4CFACF20201900ED880B4
:104E2000A555000EA65506E2A551A61103E0A56BF7
:104E3000A66B6BD0040EAB1901E1AC5155E0030E2B
:104E4000AB1901E1AC513DE0020EAB1901E1AC51EF
:104E50002CE0010EAB1901E1AC511BE0AB5101E1BB
:104E6000AC5101E04ED0030EAF1901E1B05108E1A1
:104E7000B751B81102E032DA44D0010EAF6FB06B17
:104E8000020EAF1901E1B05102E10FDA3AD043D876
:104E900038D0040EAF1901E1B05105E1B751B81196
:104EA00002E0D0D92ED0ADD82CD0040EAF1901E13C
:104EB000B05105E1B751B81102E0C4D922D0B9D838
:104EC00020D0010EAF1901E1B05103E1CAD819D0C9
:104ED0000BD0020EAF1901E1B05106E1B751B81184
:104EE00002E0B0D90ED0C8D996D9030EE66E640E92
:104EF000E66E000EE66E55EC34F0E552E552E552F2
:104F000000D00201A52B000EA623D9CFE1FFE55268
:104F1000E7CFD9FF12000201910EB35D000EB45924
:104F20006CE2010EAF1901E1B05106E1C0EC31F0C5
:104F3000F3CFFEF1F4CFFFF10101FE51FF110FE1BC
:104F40000201B951BA110BE17F0EE66EA00EE66EBA
:104F50007F0EE66E21EC0BF0E552E552E5520101C1
:104F6000010EFE1901E1FF5106E00201010EB9191F
:104F700001E1BA513EE1010E0201B96FBA6BBB2BE0
:104F8000000EBC23010EBD1901E1BE510CE0870EDD
:104F9000E66E5E0EE66E7F0EE66E21EC0BF0E552DD
:104FA000E552E55209D07F0EE66EE66EE66E21EC24
:104FB0000BF0E552E552E552140E0201BCAF02D0EF
:104FC000D89003D0BB5D000EBC5913E30101010E64
:104FD000FE1901E1FF510DE17F0EE66EE66EE66E11
:104FE00021EC0BF0E552E552E552010E0201BD6FD6
:104FF000BE6B0201B36BB46B03D0B32B000EB423B2
:1050000012000201910EB35D000EB4590EE27F0E44
:10501000E66EE66E320EE66E21EC0BF0E552E552DE
:10502000E5520201B36BB46B03D0B32B000EB42373
:1050300012000201910EB35D000EB4590EE27F0E14
:10504000E66EE66EDC0EE66E21EC0BF0E552E55204
:10505000E5520201B36BB46B03D0B32B000EB42343
:1050600012000201910EB35D000EB45901E3CFD0DE
:105070007F0EE66EE66EE66E21EC0BF0E552E55231
:10508000E5520201AD51AE112EE1000EE66EE66A68
:10509000E66EE66A040EE66EE66A97EC0FF0F56ED1
:1050A000060EE15EF550F3CFB1F2F4CFB2F2020199
:1050B000010EB11901E1B25116E1B16BB26BAD69EC
:1050C000AE69010EE66EE66A000EE66EE66AE66E10
:1050D000E66A97EC0FF0F56E060EE15EF550F3CF41
:1050E000B1F2F4CFB2F20201AD1D01E1AE1D11E14A
:1050F000BF2B000EC0230A0EC0AF02D0D89003D041
:10510000BF5D000EC05905E3BF6BC06B010EAD6FF4
:10511000AE6B010EAD1901E1AE512FE1000EE66E4E
:10512000E66AE66EE66A030EE66EE66A97EC0FF054
:10513000F56E060EE15EF550F3CFB1F2F4CFB2F2A8
:105140000201010EB11901E1B25117E1B16BB26B6D
:10515000020EAD6FAE6B000EE66EE66AE66EE66AB4
:10516000030EE66EE66A97EC0FF0F56E060EE15E52
:10517000F550F3CFB1F2F4CFB2F20201020EAD1945
:1051800001E1AE512DE1000EE66EE66AE66EE66ADA
:10519000E66EE66A97EC0FF0F56E060EE15EF550EE
:1051A000F3CFB1F2F4CFB2F20201010EB11901E175
:1051B000B25116E1B16BB26B030EAD6FAE6B000E68
:1051C000E66EE66AE66EE66AE66EE66A97EC0FF071
:1051D000F56E060EE15EF550F3CFB1F2F4CFB2F208
:1051E0000201010EB11901E1B2510DE1B16BB26BD7
:1051F000040EAD6FAE6B0FD80201040EAF1901E1C2
:10520000B05101E152D80201B36BB46B03D0B32BA0
:10521000000EB42312000201910EB35D000EB459CA
:105220000DE27F0EE66EE66EE66E21EC0BF0E552C7
:10523000E552E5520201B36BB46B03D0B32B000E01
:10524000B42312000201A151A75DA251A8590EE298
:105250007F0EE66EE66EE66E21EC0BF0E552E5524F
:10526000E5520201A72B000EA82304D0B76BB86B40
:10527000A76BA86B00D012000201910EB35D000E67
:10528000B4590FE27F0EE66E5E0EE66E7F0EE66E9E
:1052900021EC0BF0E552E552E5520201B36BB46B21
:1052A00003D0B32B000EB42312000201910EB35DA4
:1052B000000EB4590FE27F0EE66EA00EE66E7F0E72
:1052C000E66E21EC0BF0E552E552E5520201B36BBC
:1052D000B46B03D0B32B000EB42312000201A35110
:1052E000A75DA451A8590EE27F0EE66EE66EE66E4B
:1052F00021EC0BF0E552E552E5520201A72B000E1E
:10530000A82304D0B76BB86BA76BA86B00D01200B2
:10531000D9CFE6FFE1CFD9FFE652FD0EDBCFE6FFA6
:105320007F0EE552D880E754F36EFE0EDBCFF4FF1C
:10533000F350F45C0CE3FE0EDBCF2BF0FD0EDB50E4
:105340007F0FD8802B5403E37F0E5ED05BD0FD0E21
:10535000DBCFE6FF7F0EE552D880E754F36EFE0EFA
:10536000DBCFF4FFF350F45C09E2FD0EDBCFE6FF88
:10537000FE0EDB50E552E724DF6E44D0FE0EDBCF9D
:105380002BF0FD0EDB507F0FD8802B5421E2FE0E58
:10539000DB502C6E2D6AFD0EDB502E6E2F6AFE0E3A
:1053A000D8802E56000E2F562F502D18E8AE02D062
:1053B0002D3404D02C502E5C2D502F5809E3FD0EB7
:1053C000DBCFE6FFFE0EDB50E552E724DF6E1AD09E
:1053D000FE0EDB502B6E2C6AFD0EDB502D6E2E6AFE
:1053E000FE0ED8802D56000E2E562E502C18E8AEEC
:1053F00002D02C3404D02B502D5C2C502E5802E2BD
:10540000FE0EDF6EDF5000D0E552E552E7CFD9FF48
:105410001200D9CFE6FFE1CFD9FF020EE126770EC9
:10542000F36EFE0EDBCFF4FFF350F45C07E3FE0EE9
:10543000DB50870803E37F0E86D085D07F0EF36EA6
:10544000FE0EDBCFF4FFF350F45C42E2FE0EDB50C5
:10545000FF0DF3507F0FDE6EDD6A640E2F6EFC0EC3
:10546000DBCFE6FFFD0EDB50E552E702F3502F5C89
:105470002D6E2E6A2DC01DF02EC01EF0DECF22F044
:10548000DDCF23F049EC2EF01BC02BF01CC02CF01C
:105490002B6C2C1E000E2C222BC0DEFF2CC0DDFF3F
:1054A000D9CFE9FFDACFEAFF640E226E236AEECF8E
:1054B0001DF0EDCF1EF023EC2EF01DC0EEFF1EC040
:1054C000EDFF7F0EDE26000EDD22DF503CD03BD00C
:1054D000FE0EDB507F0837E2FE0EDB50810FDE6EE2
:1054E000DD6A640E2D6EFC0EDBCFE6FFFD0EDB5099
:1054F000E552E702F3502D5C2B6E2C6A2BC01DF099
:105500002CC01EF0DECF22F0DDCF23F049EC2EF0D0
:105510001BC0DEFF1CC0DDFFD9CFE9FFDACFEAFFF9
:10552000640E226E236AEECF1DF0EDCF1EF023EC49
:105530002EF01DC0EEFF1EC0EDFF7F0EDE26000E1A
:10554000DD22DF5000D0D9CFE1FFE552E7CFD9FF10
:105550001200D9CFE6FFE1CFD9FF030EE1268F0E6F
:10556000E66EF5EC2FF0E552F3CFDEFFF4CFDDFF72
:10557000DECF2BF0DDCF2CF0320E2B5C000E2C5842
:1055800003E2020EDB6A72D0DECF2BF0DDCF2CF00F
:10559000FE0E2B5C000E2C5810E2D9CFE9FFDACFBB
:1055A000EAFF9A0ED880EE54000EED5406E2010E8A
:1055B000F36E020EF3CFDBFF59D0DECF2BF0DDCF41
:1055C0002CF0CB0E2B5C010E2C580FE2D9CFE9FF4B
:1055D000DACFEAFF670ED880EE54010EED5405E2F3
:1055E000020EF36EF3CFDBFF41D0DECF2BF0DDCF29
:1055F0002CF0970E2B5C020E2C5810E2D9CFE9FF4D
:10560000DACFEAFF330ED880EE54020EED5406E2F4
:10561000030EF36E020EF3CFDBFF28D0DECF2BF0AC
:10562000DDCF2CF0640E2B5C030E2C5810E2D9CF8A
:10563000E9FFDACFEAFFFF0ED880EE54020EED54F8
:1056400006E2040EF36E020EF3CFDBFF0FD0D9CFCC
:10565000E9FFDACFEAFFCB0ED880EE54030EED540B
:1056600005E2050EF36E020EF3CFDBFF020EDB50F8
:1056700000D0D9CFE1FFE552E7CFD9FF1200D9CF53
:10568000E6FFE1CFD9FF030EE126FD0EDBCFE6FFFB
:10569000F5EC2FF0E552F3CFDEFFF4CFDDFFDECFE8
:1056A0002BF0DDCF2CF0320E2B5C000E2C5803E2D9
:1056B000020EDB6A72D0DECF2BF0DDCF2CF0010EB4
:1056C0002B5C010E2C5810E2D9CFE9FFDACFEAFFAC
:1056D0009A0ED880EE54000EED5406E2010EF36EE1
:1056E000020EF3CFDBFF59D0DECF2BF0DDCF2CF055
:1056F000CE0E2B5C010E2C580FE2D9CFE9FFDACF8A
:10570000EAFF670ED880EE54010EED5405E2020E5A
:10571000F36EF3CFDBFF41D0DECF2BF0DDCF2CF0EB
:105720009C0E2B5C020E2C5810E2D9CFE9FFDACF89
:10573000EAFF330ED880EE54020EED5406E2030E5B
:10574000F36E020EF3CFDBFF28D0DECF2BF0DDCFE0
:105750002CF0690E2B5C030E2C5810E2D9CFE9FF18
:10576000DACFEAFFFF0ED880EE54020EED5406E2C7
:10577000040EF36E020EF3CFDBFF0FD0D9CFE9FF9B
:10578000DACFEAFFCB0ED880EE54030EED5405E2DB
:10579000050EF36E020EF3CFDBFF020EDB5000D0DE
:0C57A000D9CFE1FFE552E7CFD9FF12009E
:0457AC00000EE96E94
:1057B000EA6E0400E3EC2BF0EA2A080EEA5CD8A4B7
:1057C000D9EF2BF01200EF6AE93EE3EF2BF0120065
:1057D000FF0EE3CF09F009380F0B060FD8B2070F01
:1057E0002A0FAD6E49EC2FF009500F0B060FD8B2FF
:1057F000070F2A0FAD6E49EC2FF0000C1200EACF14
:1058000004F0E9CF05F0FF0EE3CFEAFFFE0EE3CF91
:10581000E9FFA0A741D0EECFA0F0EECFA1F0EECFF0
:10582000A2F0EECFA3F0EECFA4F0EECFA5F0EECF36
:10583000A6F0EECFA7F0EECFA8F0EECFA9F0EECF16
:10584000AAF0EECFABF0EECFACF0EECFADF0EECFF6
:10585000AEF0EECFAFF0EECFB0F0EECFB1F0EECFD6
:10586000B2F0EECFB3F0EECFB4F0EECFB5F0EECFB6
:10587000B6F0EECFB7F0EECFB8F0EECFB9F0EECF96
:10588000BAF0EECFBBF0EECFBCF0EECFBDF0EECF76
:10589000BEF0EECFBFF040D0EECF80F0EECF81F083
:1058A000EECF82F0EECF83F0EECF84F0EECF85F036
:1058B000EECF86F0EECF87F0EECF88F0EECF89F016
:1058C000EECF8AF0EECF8BF0EECF8CF0EECF8DF0F6
:1058D000EECF8EF0EECF8FF0EECF90F0EECF91F0D6
:1058E000EECF92F0EECF93F0EECF94F0EECF95F0B6
:1058F000EECF96F0EECF97F0EECF98F0EECF99F096
:10590000EECF9AF0EECF9BF0EECF9CF0EECF9DF075
:10591000EECF9EF0EECF9FF004C0EAFF05C0E9FF96
:105920001200A0A11200EACF04F0E9CF05F0FF0EAB
:10593000E3CFEAFFFE0EE3CFE9FFA0A941D0C0C04C
:10594000EEFFC1C0EEFFC2C0EEFFC3C0EEFFC4C099
:10595000EEFFC5C0EEFFC6C0EEFFC7C0EEFFC8C079
:10596000EEFFC9C0EEFFCAC0EEFFCBC0EEFFCCC059
:10597000EEFFCDC0EEFFCEC0EEFFCFC0EEFFD0C039
:10598000EEFFD1C0EEFFD2C0EEFFD3C0EEFFD4C019
:10599000EEFFD5C0EEFFD6C0EEFFD7C0EEFFD8C0F9
:1059A000EEFFD9C0EEFFDAC0EEFFDBC0EEFFDCC0D9
:1059B000EEFFDDC0EEFFDEC0EEFFDFC0EEFF40D049
:1059C000E0C0EEFFE1C0EEFFE2C0EEFFE3C0EEFF9D
:1059D000E4C0EEFFE5C0EEFFE6C0EEFFE7C0EEFF7D
:1059E000E8C0EEFFE9C0EEFFEAC0EEFFEBC0EEFF5D
:1059F000ECC0EEFFEDC0EEFFEEC0EEFFEFC0EEFF3D
:105A0000F0C0EEFFF1C0EEFFF2C0EEFFF3C0EEFF1C
:105A1000F4C0EEFFF5C0EEFFF6C0EEFFF7C0EEFFFC
:105A2000F8C0EEFFF9C0EEFFFAC0EEFFFBC0EEFFDC
:105A3000FCC0EEFFFDC0EEFFFEC0EEFFFFC0EEFFBC
:105A400004C0EAFF05C0E9FF1200F2B412001650CC
:105A50000F0AD8B41200FF0EE3CF0AF0FE0EE3CF18
:105A60000BF0FD0EE3CF0CF0FC0EE3CF0DF00A2A95
:105A700016A08D8E0B2A16A28F800C2A16A48F8654
:105A80000D2A16A68F880E6A0F6A106A116A78ECC2
:105A90002DF00A2E4EEF2DF016A08D9E0B2E53EFFB
:105AA0002DF016A28F900C2E58EF2DF016A48F9685
:105AB00000000D2E5EEF2DF016A68F9800000E2E22
:105AC00063EF2DF0129000000F2E68EF2DF0129270
:105AD0000000102E6DEF2DF012940000112E72EFC9
:105AE0002DF012969AEC2DF0133E49EF2DF0120096
:105AF000D70E136E000000000000000090EC2DF0A7
:105B0000132E7AEF2DF0D70E136E00000000000068
:105B1000000090EC2DF0132E85EF2DF00000120008
:105B2000000093EF2DF000000000000000000000D6
:105B300000001200030E146E0000142E9CEF2DF0D6
:025B4000120051
:0E5B4200269E08D0269E1EAE05D01D6C1E1E8F
:105B5000E86A1E22268E1EC018F01DC017F02A6AA1
:105B6000296A8E0E196E1A6ADFEF2EF0266A1BEC78
:105B70002FF033EC2FF026B6C3EF2EF026A205D07F
:105B800026B8C3EF2EF0CAEF2EF026AA05D026B015
:105B9000C3EF2EF0CAEF2EF026B002D026A802D016
:105BA000D6EF2EF01A6A24501F24196EE86A1A22C2
:105BB0007E0E195EE86A1A5A296A2A6A176A186AF2
:105BC00023501E02F4CF18F0F3CF17F022501E021C
:105BD000F3502A26F4501722000E182223501D02DB
:105BE000F3502A26F4501722000E182221501E02CC
:105BF000F3502926F4502A22000E17221822225090
:105C00001D02F3502926F4502A22000E17221822D2
:105C100023501C02F3502926F4502A22000E17228A
:105C2000182221501D02F4502926000E2A22172284
:105C3000182222501C02F4502926000E2A22172274
:105C40001822DFEF2EF0256A23AE2CEF2EF0226C07
:105C5000231EE86A2322251E1EAE34EF2EF01D6C93
:105C60001E1EE86A1E22251E57EC36F01EBE44EFAB
:105C70002EF025AE000C1D6C1E1EE86A1E22196C4B
:105C80001A1EE86A1A22000C25BE3BEF2EF0268869
:105C9000FF0C1EC02AF01DC029F01D502202F4CFB7
:105CA0001CF0F3CF1BF01E502302F4CF1EF0F3CFF5
:105CB0001DF02202F3501C26F4501D22E86A1E2219
:105CC00029502302F3501C26F4501D22E86A1E229C
:105CD00023AE6FEF2EF029501D5E2A501E5A2AAEB9
:105CE000000C22501D5E23501E5A000C1DC029F0CE
:105CF0001D502202F4CF1CF0F3CF1BF01E502302E4
:105D0000F4CF1EF0F3CF1DF02202F3501C26F45006
:105D10001D22E86A1E2229502302F3501C26F4504B
:105D20001D22E86A1E22000C266A1BEC2FF026B604
:105D30009EEF2EF026A20ED026B405D07F0E1E6E4A
:105D4000FF0E1D6E1FD0800E1E6E1D6A1BD01E6AB8
:105D50001D6A18D026B0FBD78F0E1F60EDD77E0EC0
:105D60001F64F5D78E0E1F5C05E0D8901E321D32E1
:105D70001F2AF8D726A406D01D6C1E1EE86A1E2214
:105D80001EAEE5D712007F0E1F6EFF0E1E6E1D6E3B
:105D90001C6E12007F0E26BEFF0E1F6E02D07F0EFD
:105DA0001F6E800E1E6E1D6A1C6AF3D726AE04D0CD
:105DB000800E1F6E1E6AF7D71F6A1E6AF4D718502E
:105DC00017102A102910F8E01ABEF0D718BE0CD010
:105DD00019501A10EBE0D89029362A3617361836A3
:105DE0001906D8A01A06F2D71A50D4E11928D2E021
:105DF00029AE11D07F0E291402E12AA00CD02A2A44
:105E0000E86A1722182207E3D880183217322A329C
:105E1000192A1928BFE01950C9E02AC01CF017C080
:105E20001DF018341E6E19301F6E1E321F9E26BEC6
:105E30001F8EC9EF2EF01E361F3602E32684267E03
:105E400006E126801F6A1E6A1D6A1C6A12001F284E
:105E500003E0D8801E321200D8901E3202E1268262
:105E60001200268612002336243602E3268C267E74
:105E700006E12688246A236A226A216A12002428FD
:105E800003E0D88023321200D8902332EAE1268A38
:025E90001200FE
:0E5E92009EB802D0FDD7FCD71200D9CFE6FF94
:105EA000E1CFD9FFFE0EDBCFE6FFE8EC2BF0E552A9
:105EB0000D0EAD6EEEDFE552E7CFD9FF1200D9CF60
:105EC000E6FFE1CFD9FF0301D950FD0F066FFF0EAA
:105ED000DA20076F010EEA6A0625E96E0751EA2209
:105EE000EF50E66EE8EC2BF0E55206C3E9FF07C37E
:105EF000EAFFEF50E66EE8EC2BF0E5520D0EAD6ECA
:105F0000C8DFE552E7CFD9FF1200D9CFE6FFE1CFD6
:105F1000D9FF0301086B1A0E085D11E2FD0EDBCFFD
:105F2000E9FFDB2AFE0EDBCFEAFF01E3DB2AEF50BD
:105F3000E66EE8EC2BF0E5520301082BECD70D0ED2
:105F4000AD6EA7DFE552E7CFD9FF12000301800E47
:105F5000066F020E076F0201805103010A6F0B6B7F
:105F60000C510A1902E10D510B1918E00201A0A50C
:105F700002D0A0950FD00CC3E6FFE8EC2BF0E55261
:105F80000AC3E6FFE8EC2BF0E5520D0EAD6E81DFA3
:105F90000201A0950AC30CF30BC30DF303010C2BF4
:105FA000000E0D230D3504E20C51FF08000E0D55B7
:105FB00002E20C6B0D6B1200150EE66E3C0EE66EE7
:105FC000B2EC35F0E552E552320EE66EA3EC36F057
:105FD000E5521200D9CFE6FFE1CFD9FFFE0EDBCFAD
:105FE00009F3E552E7CFD9FF1200D9CFE6FFE1CFA1
:105FF000D9FF020EE1260F0EE66EFE0EDB507F0B80
:10600000FE0BFD0BE66EF10EE66E19EC35F0E55277
:10601000E552E5520A0EE66EC1EC36F0E552D8ECD8
:1060200036F007EC04F0000901E0FBD738EC36F05D
:10603000D5EC36F0C4502D6E2DC02EF02D6AC35015
:1060400000012D102B6E2EC02CF02BC0DEFF2CC0BB
:10605000DDFFDECF2BF0DDCF2CF02BC0F3FF2CC00B
:10606000F4FF00D0D9CFE1FFE552E7CFD9FF12000E
:10607000D9CFE6FFE1CFD9FFFE0EDB5011E1FC0ED8
:10608000DBCFE9FFFD0EDBCFEAFFEF507F0808E230
:10609000FC0EDBCFE9FFFD0EDBCFEAFF7F0EEF6EDC
:1060A000E552E7CFD9FF1200D9CFE6FFE1CFD9FF04
:1060B000FE0EDB5013E1FC0EDBCFE9FFFD0EDBCF64
:1060C000EAFFEFCF2BF07F0E2B5C08E2FC0EDBCF5C
:1060D000E9FFFD0EDBCFEAFF7F0EEF6EE552E7CF63
:1060E000D9FF1200F00EE66EEAEC2FF0E552938A2B
:1060F00093889386938499829980938E938C9A84C3
:106100009A82998699849A8A9A8894809A869A8E95
:106110009A9C919C02017F0E6B6F6BC26AF26BC2FC
:1061200069F26BC268F26BC267F26BC266F26BC255
:1061300065F26BC264F2736F73C272F273C271F272
:1061400073C270F273C26FF273C26EF273C26DF2F9
:1061500073C26CF2000EE66EE66AE66EE66AE66E02
:10616000E66AE66EE66A2FEC21F0F56E080EE15E57
:10617000F550E5EC16F0600EE66E020EE66EEDEC04
:1061800020F0E552E55214EC25F012C360F2DA0E6D
:10619000E66E630EE66E000EE66E55EC34F0E552E8
:1061A000E552E55274EF20F0800EE66E020EE66EC8
:1061B000D4EC20F0E552E5521FEC0FF02CD873C25E
:1061C000E6FF72C2E6FF71C2E6FF70C2E6FF25EC91
:1061D0002DF0E552E552E552E5520101BA5112E0C7
:1061E0000201010EFF6F1D0EFF5D0CE2FFC2E6FF14
:1061F0001EEC26F0E552000902E0FFC262F2020145
:10620000FF2BF1D7600EE66E020EE66EEDEC20F08D
:10621000E552E55212005CEC15F0EAEC17F091C281
:10622000E6FF89C2E6FF8DC2E6FF21EC0BF0E552E6
:08623000E552E552C1EF0FF049
:08623800D9CFE6FFE1CFD9FF49
:10624000FE0EDB5002E18D8401D08D94E552E7CF44
:10625000D9FF1200D9CFE6FFE1CFD9FF030EE12627
:10626000870EE66EF5EC2FF0E552F3CFDEFFF4CFAC
:10627000DDFFDECF2BF0DDCF2CF00A0E2B5C000E05
:106280002C5803E2020EDB6A72D0DECF2BF0DDCF9A
:106290002CF0D70E2B5C000E2C5810E2D9CFE9FF62
